:020000040000FA
:100000000C9458010C9489010C9489010C94890179
:100010000C9489010C9489010C9489010C94890138
:100020000C9489010C9489010C9489010C94890128
:100030000C9489010C9489010C9489010C94890118
:100040000C9489010C9489010C9489010C94890108
:100050000C9489010C9489010C9489010C94750805
:100060000C9489010C9489010C9489010C948901E8
:100070000C9489010C9489010C9489010C948901D8
:100080000C9489010C9489010C9489010C948901C8
:100090000C9489010C9489010C9489010C94BF087B
:1000A0000C9489010C9489010C9489010C948901A8
:1000B0000C9489010C9489010C9489010C94890198
:1000C0000C9489010C9489010C9489010C94890188
:1000D0000C9489010C9489010C9489010C94890178
:1000E0000C9489010C947C040C940A020C948606EE
:1000F0000C947F040C9433020C94EE040C94951928
:100100000C9417020C9456190C94A2010C94290219
:100110000C944A190C94FD040C942F020C94370291
:100120000C9485060C9406020C941B020C945E1928
:100130000C9483040C94ED040C9417050C94100596
:100140000C9458190C9428070C945C190C942102F7
:100150000C9411020C9425020C94E3090C945A1986
:100160000C9444050C940E020C9402020C94A10110
:100170000C94B1010C9460190C9441020C94FC0194
:100180000C9454190C943C020C943D020000210084
:10019000240027002A002D00300033000101000058
:1001A000040107010A0100002200250028002B009D
:1001B0002E003100340002010000050108010B018E
:1001C000000020002300260029002C002F00320010
:1001D00000010000030106010901050505050705E9
:1001E00008080808020202020A0A080804040404B3
:1001F00001010101010101010303030303030303DF
:10020000040707070C0C0C0C0C0C0C0C020202026D
:1002100006060606060606060B0B0B0B0B0B0B0B56
:100220000102102020080810204010204080020108
:1002300002010804020101020408102040808040ED
:1002400020100804020180040201804020100804EC
:10025000020108040201010204081020408001028A
:1002600004081020408000000A0B02090C0D0E0843
:10027000070304010000000000000000000000006F
:10028000000000000000000000000000000000006E
:10029000000012111000000000000000000000002B
:1002A000000000000000000000000000E3099519B4
:1002B00011241FBECFEFD1E2DEBFCDBF00E00CBFE7
:1002C00025E0AEE8B3E001C01D92A03AB207E1F725
:1002D00013E0A0E0B2E0E4E8F8E300E00BBF02C006
:1002E00007900D92AE38B107D9F711E0C7E5D1E01C
:1002F00000E006C021970109802FFE010E94121A1A
:10030000C635D10780E00807A9F70E941A0E0C94A1
:10031000301C0C94000020916E0430916F04821701
:10032000930738F420916A0430916B04211531054C
:1003300029F41092530483E594E00895820F931FEB
:10034000089508950895DB0114964D915C911597D9
:100350006D917C91DC01ED91FC910280F381E02DA7
:100360001994AF92BF92CF92DF92EF92FF920F93C8
:100370001F93CF93DF936C017B018B01040F151F3B
:10038000EB015E01AE18BF08C017D10759F06991A3
:10039000D601ED91FC910190F081E02DC6011995F7
:1003A000892B79F7C501DF91CF911F910F91FF90B4
:1003B000EF90DF90CF90BF90AF9008958150823141
:1003C00008F05AC0E82FF0E08827E651FE4F8F4F23
:1003D0000C94121A0A020E02FC01020206023C02EE
:1003E000110217021B022102250229022F023302E9
:1003F0003C0237023D024102809180008F7780935A
:1004000080000895809180008F7DF9CF80918000D9
:10041000877FF5CF84B58F7784BD089584B58F7DB0
:10042000FBCF8091B0008F778093B00008958091CA
:10043000B0008F7DF9CF809190008F7780939000EE
:100440000895809190008F7DF9CF80919000877FF3
:10045000F5CF8091A0008F778093A00008958091C0
:10046000A0008F7DF9CF8091A000877FF5CF80918C
:1004700020018F77809320010895809120018F7D46
:10048000F9CF80912001877FF5CFCF93DF93282F7D
:1004900030E0F901EA59FD4F8491F901E05EFD4F2A
:1004A000D491F901E652FE4FC491CC23A1F0811101
:1004B0000E94DE01EC2FF0E0EE0FFF1FE054FE4F34
:1004C000A591B491EC91ED2381E090E009F480E0F6
:1004D000DF91CF91089580E090E0FACF1F93CF9302
:1004E000DF93282F30E0F901EA59FD4F8491F9019B
:1004F000E05EFD4FD491F901E652FE4FC491CC234A
:10050000A9F0162F81110E94DE01EC2FF0E0EE0F12
:10051000FF1FEA55FE4FA591B4918FB7F894EC9167
:10052000111108C0D095DE23DC938FBFDF91CF91EE
:100530001F910895DE2BF8CF0F931F93CF93DF9376
:10054000182F062F61E00E946E0281E20E94450290
:1005500031E020E0019709F030E0C32FD22F82E292
:100560000E944502019709F4C26080E20E944502A0
:10057000019709F4C46002C0CC0FDD1F0A95E2F7B1
:1005800060E0812F0E946E02CE01DF91CF911F911A
:100590000F910895CF93DF9390E0FC01E05EFD4F53
:1005A000249186529E4FFC0184918823C9F090E0EB
:1005B000880F991FFC01E457FE4FA591B491FC01EF
:1005C000EA55FE4FC591D49161110DC09FB7F894C3
:1005D0008C91209582238C938881282328839FBF28
:1005E000DF91CF910895623051F49FB7F8943C9118
:1005F000822F809583238C93E8812E2BEFCF8FB7AA
:10060000F894EC912E2B2C938FBFEACF3FB7F89440
:100610008091450490914604A0914704B09148040C
:1006200026B5A89B05C02F3F19F00196A11DB11D4D
:100630003FBFBA2FA92F982F8827BC01CD01620F89
:10064000711D811D911D42E0660F771F881F991F44
:100650004A95D1F708958F929F92AF92BF92CF9211
:10066000DF92EF92FF926B017C010E9406034B0127
:100670005C01C114D104E104F104B9F00E94060345
:10068000681979098A099B09683E734081059105BB
:1006900080F321E0C21AD108E108F10888EE880E43
:1006A00083E0981EA11CB11CE4CFFF90EF90DF9077
:1006B000CF90BF90AF909F908F900895CF93DF938E
:1006C000C9E8D4E060E089A50E946E026DA17EA118
:1006D000072E000C880B990B0E942B0361E089A563
:1006E000DF91CF910C946E02CF93DF9380919704AA
:1006F000811105C080919904882309F45CC0E091C0
:100700008B04F0918C041386EF01C458DF4F80A155
:1007100091A1A2A1B3A1488159816A817B81841BE7
:10072000950BA60BB70B2497488159816A817B8171
:10073000841B950BA60BB70B2896488159816A81BB
:100740007B81841B950BA60BB70B4281538164817F
:10075000758184239523A623B72382839383A4835F
:10076000B5838091A60481110E945E0361E08091AF
:10077000B8040E946E0260E08091B4040E946E0290
:1007800060E08091B6040E946E0261E08091BA043C
:100790000E946E0264EF71E080E090E00E942B0303
:1007A00060E08091B0040E946E0210929704109253
:1007B000990410929804DF91CF9108952FB7F8947F
:1007C00060914104709142048091430490914404EB
:1007D0002FBF0895CF93DF93DC0126E0629FA00D29
:1007E000B11D112490965C934E935F9721E09196F2
:1007F0002C939197FC01E359FF4F0190F081E02D7C
:10080000EC01C459DF4F2881222341F0309719F0C1
:10081000DC01662329F0DF91CF9108953097D9F359
:100820005C968C91DF91CF911994CF92DF92EF92E9
:10083000FF920F931F93CF93DF93EC01162F042F9A
:10084000FC0186E0689FE00DF11D112411A2878D47
:1008500090A18130910509F180F08230910509F471
:1008600043C0039709F445C0DF91CF911F910F91C9
:10087000FF90EF90DF90CF9008954423A9F341E0DB
:1008800050E0CE010E94EA030E94DE03C85ADF4F07
:10089000688379838A839B83E7CF0E94DE03FE010E
:1008A000E85AFF4FC080D180E280F380AB01BC01E9
:1008B0004C195D096E097F09729680819181B0E0C3
:1008C000A0E084179507A607B70770F442E050E050
:1008D000612FCE01DF91CF911F910F91FF90EF908B
:1008E000DF90CF900C94EA0343E050E00111BCCFBD
:1008F000EFCF50E040E0ECCF862F0C944502862FDE
:10090000642F0C946E02862F642F0C94CA022091DF
:10091000F603260F3327331F21323105ECF42091E3
:100920001A04FC0190E080E0243069F082E0089530
:10093000A091F6032191AC014A525C4FA40FB52F50
:10094000B11D2C930196861798F38091F603680FDA
:100950006093F60380E0089581E0089510921A04F0
:1009600081E080931C0410921B0461E084E10E94EA
:100970006E0261E085E10E946E02E9EBF0E08081A9
:100980008E7F808380818D7F808388E48093B80010
:1009900085E48093BC000895CF93DF9391E090931A
:1009A000D5038823B9F0C091B800D091BA008091E6
:1009B000BC008A7B8093BC0060E084E10E946E02F0
:1009C00060E085E10E946E020E94AE04D093BA00FE
:1009D000C093B800DF91CF9108950895E09150043D
:1009E00080914F04E81730F4F0E0E055FC4F80812F
:1009F00090E008958FEF9FEF0895909150048091BB
:100A00004F042FEF3FEF981748F4E92FF0E0E0553F
:100A1000FC4F208130E09F5F90935004C9010895FE
:100A200080914F0490915004891B990B0895CF92A7
:100A3000DF92EF92FF920F931F93CF93DF937C018E
:100A4000CB018A012091AF03222389F0EB016B01D6
:100A5000C40ED51ECC15DD0569F06991D701ED9165
:100A6000FC910190F081E02DC7011995F3CF642F1F
:100A70000E948704C801DF91CF911F910F91FF90D1
:100A8000EF90DF90CF900895CF93DF931F92CDB773
:100A9000DEB769832091AF032223F9F020914D0442
:100AA000203258F021E030E0FC013383228390E0D3
:100AB00080E00F90DF91CF91089580914E04E82F50
:100AC000F0E0E157FC4F998190838F5F80934E0453
:100AD00080934D0481E090E0ECCF61E0CE0101967F
:100AE0000E948704F7CFCF93DF93FC011386DC01CC
:100AF000A05ABF4FEC01C859DF4F8D919D910D90C9
:100B0000BC91A02D488159816A817B81840F951FFA
:100B1000A61FB71F6C96488159816A817B81840F1B
:100B2000951FA61FB71F82839383A483B583168264
:100B3000178210861186DF91CF910895CF92DF92B0
:100B4000EF92FF920F931F93CF93DF93FC01C48129
:100B500021E02093AF03C0938E0310924E041092B5
:100B60004D048485682B84E594E00E944405D0916F
:100B70004D04D13208F092C00E9406036B017C0143
:100B800080911A04811165C082E080931A0481E08B
:100B900080931C048FEF8093190410923E04D0932D
:100BA0003D04AFE8B3E0EDE1F4E080E0D81385C0A8
:100BB00010923F0480913F04CC0FC82BC0933F0498
:100BC00080911B04813009F07CC010921B040E94AC
:100BD00006036B017C0180913F048093BB008091F0
:100BE000D1039091D203A091D303B091D403892B68
:100BF0008A2B8B2B99F00E9406030091D103109150
:100C0000D2032091D3033091D4036C197D098E094E
:100C10009F090617170728073907E0F18091BC00E4
:100C200083FDD9CF85EC8093BC000E9406036B0145
:100C30007C0180911A04823009F445C08091190426
:100C40008F3F61F180911904803241F18091190444
:100C500025C08091D1039091D203A091D303B0918C
:100C6000D403892B8A2B8B2B09F48ACF0E9406038D
:100C70000091D1031091D2032091D3033091D4037A
:100C80006C197D098E099F09061717072807390770
:100C900008F076CF8091D0030E94CC0410924E04CD
:100CA00010924D041092AF03DF91CF911F910F91DD
:100CB000FF90EF90DF90CF9008959D9191938F5F7B
:100CC00075CF85EEB0CF8091D1039091D203A091E2
:100CD000D303B091D403892B8A2B8B2B09F4A9CF92
:100CE0000E9406030091D1031091D2032091D303F7
:100CF0003091D4036C197D098E099F0906171707D7
:100D00002807390708F095CFC5CF089590E080E017
:100D100008950F931F93CF938C01C62F0E949E05B9
:100D20006C2F6460C8010E949E056C2F6B7FC80108
:100D30000E949E0583EC90E00197F1F7CF911F91FF
:100D40000F9108950F931F93CF93DF938C01D62FAC
:100D5000C42F607F642B0E94890680E1D89FB00178
:100D600011246C2BC801DF91CF911F910F910C942E
:100D70008906EF92FF920F931F93CF93DF938C011D
:100D80007A0188E0689FB0011124606440E0C801E6
:100D90000E94A206E701A8E0EA0EF11C6991D801C1
:100DA000ED91FC910190F081E02DC8011995CE15CF
:100DB000DF05A1F7DF91CF911F910F91FF90EF9089
:100DC0000895CF93DF9300D000D01F921F92CDB72C
:100DD000DEB728E0EEE1F2E0DE01119601900D921F
:100DE0002A95E1F7FC012085241710F44FEF420FFC
:100DF00050E0440F551F21E030E02C0F3D1F420F03
:100E0000531FFA012081620F606840E028960FB6F8
:100E1000F894DEBF0FBECDBFDF91CF910C94A20638
:100E2000CF93DF93EC0140E061E00E94A2068BE3E8
:100E30009FE10197F1F78985882339F040E060E070
:100E4000CE01DF91CF910C94E106DF91CF9108950F
:100E500041E00E94A20681E090E00895FB0101902C
:100E60000020E9F73197AF01461B570BDC01ED91EC
:100E7000FC910280F381E02D19940F931F93CF937F
:100E8000DF93EC0188819981009759F02A813B8199
:100E90002617370730F081E0DF91CF911F910F9136
:100EA00008958B016F5F7F4F0E943F1B009759F0A1
:100EB000998388831B830A832C813D81232B59F7D7
:100EC000FC011082E8CF80E0E7CFEF92FF920F9312
:100ED0001F93CF93DF936115710541F480E0DF919B
:100EE000CF911F910F91FF90EF90089541155105FB
:100EF000B1F07B01EC010C811D81040F151FB801BD
:100F00000E943D07882351F3288139818C819D817E
:100F1000B701820F931F0E94291C1D830C8381E05F
:100F2000DECFCF93DF93EC0188819981009711F098
:100F30000E94B61A198218821D821C821B821A8294
:100F4000DF91CF910895CF93DF93EC01FB014481B2
:100F50005581608171810E946507811103C0CE01B6
:100F60000E949107CE01DF91CF910895EF92FF92F9
:100F70000F931F93CF93DF93EC017B018A01BA019A
:100F80000E943D0781110BC0CE010E949107CE0146
:100F9000DF91CF911F910F91FF90EF9008951D83E6
:100FA0000C83B701888199810E94291CF0CFFB0135
:100FB00001900020E9F73197AF01461B570B0C94C5
:100FC000B6070F931F93CF93DF93CDB7DEB762972A
:100FD0000FB6F894DEBF0FBECDBF8C01CB01F80178
:100FE00011821082138212821582148242E0BE01A5
:100FF0006F5F7F4F0E949919BE016F5F7F4FC801DD
:101000000E94D70762960FB6F894DEBF0FBECDBF21
:10101000DF91CF911F910F910895CF93DF93EC0152
:10102000FB018617970749F0608171816115710591
:1010300041F0448155810E94B607CE01DF91CF91E6
:1010400008950E949107F9CFFC011182108213824A
:10105000128215821482FB0101900020E9F731977A
:10106000AF01461B570B0C94B607FC0180819181A0
:10107000009711F00C94B61A089585ED8093BC008A
:101080008091D1039091D203A091D303B091D40366
:101090000796A11DB11D23E0B695A7959795879555
:1010A0002A95D1F72091BC0024FD03C010921A04A8
:1010B00008954091D1035091D2036091D303709170
:1010C000D403452B462B472B69F30097A105B105A7
:1010D00041F025E32A95F1F700000197A109B10934
:1010E000E1CF8091D0030C94CC041F920F920FB6E5
:1010F0000F9211242F933F938F939F93AF93BF939E
:101100008091410490914204A0914304B091440421
:101110003091400423E0230F2D3758F50196A11D8F
:10112000B11D209340048093410490934204A09306
:101130004304B09344048091450490914604A091E7
:101140004704B09148040196A11DB11D8093450448
:1011500090934604A0934704B0934804BF91AF9185
:101160009F918F913F912F910F900FBE0F901F90E5
:10117000189526E8230F0296A11DB11DD2CF1F920C
:101180000F920FB60F9211240BB60F922F933F932D
:101190004F935F936F937F938F939F93AF93BF937F
:1011A000EF93FF938091B900887F803609F44DC09A
:1011B00008F040C0883209F4A9C028F5803109F44C
:1011C0009DC0C8F4882309F4FBC0883009F496C098
:1011D000FF91EF91BF91AF919F918F917F916F910F
:1011E0005F914F913F912F910F900BBE0F900FBECB
:1011F0000F901F901895883109F488C0803241F70C
:101200008093190414C0803409F49DC040F48033E5
:10121000B9F38833E9F68093190485ECB0C08035C2
:1012200009F485C0883509F496C0883489F60E948F
:101230003D08CECF883909F48CC038F5883729F0BD
:1012400050F4883611F0803719F683E080931A0441
:101250001092180457C0883809F47BC0803919F0FF
:10126000803809F0B5CF80911804803208F071C041
:10127000E091180481E08E0F809318048091BB00E8
:10128000F0E0E850FC4F80833DC0803B39F0E0F453
:10129000803A09F479C0883A09F09ACF84E08093C3
:1012A0001A041092F7031092F603E0914B04F091A8
:1012B0004C0419958091F60381110FC081E0809351
:1012C000F6031092D60309C0803C09F4A6CF883CEF
:1012D00009F4A3CF883B09F07BCFE091F70381E0CD
:1012E0008E0F8093F703F0E0EA52FC4F80818093E9
:1012F000BB009091F7038091F60329C080913F04D1
:101300008093BB0085EC8093BC0062CF90913E043B
:1013100080913D04981758F5E0913E0481E08E0FCE
:1013200080933E04F0E0E35EFB4F8081E9CFE091E3
:101330003E0481E08E0F80933E048091BB00F0E07C
:10134000E35EFB4F808390913E0480913D049817AB
:10135000C8F285E8D8CFE0913E0481E08E0F8093FB
:101360003E048091BB00F0E0E35EFB4F8083809100
:101370001C0481115CCF81E080931B0484EA80937C
:10138000BC0010921A0424CF85EC8093BC0010920C
:101390001A0480911804803230F4E0911804F0E0CF
:1013A000E850FC4F10826091180470E0E09149040D
:1013B000F0914A0488EF93E019951092180408CF31
:1013C0001092190434CFEF92FF920F931F93CF9393
:1013D000DF93109257041092560488EE93E0A0E039
:1013E000B0E08093580490935904A0935A04B093AA
:1013F0005B0482E692E0909355048093540484E267
:1014000090E09093010580930005109202051092E0
:10141000030510920405109205051092060510921E
:101420000705109208051092090510920A051092FE
:101430000B0584E1E6E2F2E0ACE0B5E001900D924C
:101440008A95E1F78FEF9FEFDC0180932005909361
:101450002105A0932205B093230581E090E0A0E050
:10146000B0E08093240590932505A0932605B093C2
:10147000270582E090E0A0E0B0E0809328059093FB
:101480002905A0932A05B0932B0584E090E0A0E005
:10149000B0E080932C0590932D05A0932E05B0937A
:1014A0002F0588E090E0A0E0B0E0809330059093B5
:1014B0003105A0933205B093330580E190E0A0E0C0
:1014C000B0E08093340590933505A0933605B09332
:1014D000370580E290E0A0E0B0E08093380590937B
:1014E0003905A0933A05B0933B0580E490E0A0E075
:1014F000B0E080933C0590933D05A0933E05B093EA
:101500003F0580E890E0A0E0B0E080934005909334
:101510004105A0934205B093430580E091E0A0E02F
:10152000B0E08093440590934505A0934605B093A1
:10153000470580E092E0A0E0B0E0809348059093FA
:101540004905A0934A05B0934B0580E094E0A0E0E4
:10155000B0E080934C0590934D05A0934E05B09359
:101560004F0580E098E0A0E0B0E0809350059093B4
:101570005105A0935205B093530580E090E1A0E09F
:10158000B0E08093540590935505A0935605B09311
:10159000570580E090E2A0E0B0E08093580590937A
:1015A0005905A0935A05B0935B0580E090E4A0E054
:1015B000B0E080935C0590935D05A0935E05B093C9
:1015C0005F0580E090E8A0E0B0E080936005909334
:1015D0006105A0936205B093630580E090E0A1E00F
:1015E000B0E08093640590936505A0936605B09381
:1015F000670580E090E0A2E0B0E0809368059093FA
:101600006905A0936A05B0936B0580E090E0A4E0C3
:10161000B0E080936C0590936D05A0936E05B09338
:101620006F0580E090E0A8E0B0E0809370059093B3
:101630007105A0937205B093730580E090E0A0E17E
:10164000B0E08093740590937505A0937605B093F0
:10165000770580E090E0A0E2B0E080937805909379
:101660007905A0937A05B0937B0580E090E0A0E433
:10167000B0E080937C0590937D05A0937E05B093A8
:101680007F0580E090E0A0E8B0E080938005909333
:101690008105A0938205B093830580E090E0A0E0EF
:1016A000B1E08093840590938505A0938605B0935F
:1016B000870580E090E0A0E0B2E0809388059093F9
:1016C0008905A0938A05B0938B0580E090E0A0E0A7
:1016D000B4E080938C0590938D05A0938E05B09314
:1016E0008F0580E090E0A0E0B8E0809390059093B3
:1016F0009105A0939205B093930580E090E0A0E05F
:10170000B0E78093940590939505A0939605B093C8
:10171000970580E090E0A0E0B0E880939805909372
:101720009905A0939A05B0939B0561E08BE00E9418
:10173000CA0261E08DE00E94CA0280E095E00E944A
:10174000730586ECE82E84E0F82E1092C704109200
:10175000C6041092C9041092C804C1E0D0E0D0932E
:10176000CB04C093CA0462E070E07093CD04609330
:10177000CC0444E050E05093CF044093CE0408E002
:1017800010E01093D1040093D00420E130E03093B6
:10179000D3042093D20480E290E09093D504809308
:1017A000D404E0E4F0E0F093D704E093D604E0E85A
:1017B000F0E0F093D904E093D804E0E0F1E0F09396
:1017C000DB04E093DA04E0E0F2E0F093DD04E09380
:1017D000DC04E0E0F4E0F093DF04E093DE04E0E01A
:1017E000F8E0F093E104E093E004E0E0F0E1F0934E
:1017F000E304E093E204E0E0F0E2F093E504E09338
:10180000E404E0E0F0E4F093E704E093E604D0932E
:10181000E904C093E8047093EB046093EA045093E6
:10182000ED044093EC041093EF040093EE04309326
:10183000F1042093F0049093F3048093F204109247
:10184000F5041092F4041092F6041092F70410922A
:10185000F8041092F9048EE190E0A0E0B0E08093EB
:10186000FA049093FB04A093FC04B093FD0410923F
:10187000FF041092FE0461E08DE20E94CA0261E062
:101880008FE20E94CA0261E08EE20E94CA0261E019
:101890008CE20E94CA0261E08AE20E94CA0261E010
:1018A00088E20E94CA0261E086E20E94CA0261E008
:1018B00084E20E94CA0260E081E20E94CA0260E003
:1018C00082E20E94CA0260E080E20E94CA0260E0F6
:1018D0008DE20E946E0260E08FE20E946E0260E084
:1018E0008EE20E946E0260E08CE20E946E0260E076
:1018F0008AE20E946E0260E088E20E946E0260E06E
:1019000086E20E946E0260E084E20E946E02109203
:10191000BC041092BD041092BE041092BF0488E271
:1019200090E0A0E0B0E08093C0049093C104A09345
:10193000C204B093C3041092C4041092C50461E0C1
:1019400087E00E94CA0261E089E00E94CA0261E069
:1019500085E00E94CA0260E083E00E94CA0260E063
:1019600083E20E94CA0261E083E00E94CA0261E051
:1019700083E00E946E0261E087E00E946E0261E0F7
:1019800089E00E946E0261E085E00E946E02109282
:101990008A0410928904D0939004C0938F0410920B
:1019A0009104109292041092930410929404109255
:1019B0009504109296041092970410929804109235
:1019C000990410929A0484EF91E090939C04809380
:1019D0009B0410929E0410929D0410929F041092FA
:1019E000A1041092A0041092A2041092A3041092D9
:1019F000A4041092A5041092A6041092A7041092B9
:101A0000A8041092A9041092AA041092AB04109298
:101A1000AC0481E08093AD0484E190E09093AF0446
:101A20008093AE048AE090E09093B1048093B00478
:101A30001093B3040093B20482E190E09093B50454
:101A40008093B4048FE090E09093B7048093B60441
:101A50008EE090E09093B9048093B8048CE090E01D
:101A60009093BB048093BA04F0928E04E0928D04AC
:101A700080E095E090938C0480938B040E94730522
:101A800061E08091B4040E94CA0261E08091B404D4
:101A90000E94CA0261E08091B6040E94CA0261E01D
:101AA0008091B8040E94CA0261E08091BA040E9449
:101AB000CA0261E08091B0040E94CA0261E0809194
:101AC000B2040E94CA0260E08091B4040E946E02D7
:101AD00060E08091B6040E946E0261E08091B804DB
:101AE0000E946E0261E08091BA040E946E0260E082
:101AF0008091B0040E946E0261E08091B2040E9465
:101B00006E02D0938A04C093890469E173E08AE687
:101B100094E00E94240880E1EAE3F2E0A0E7B4E068
:101B200001900D928A95E1F780914A0290914B02C3
:101B3000A0914C02B0914D02809380049093810457
:101B4000A0938204B093830480914E0290914F023F
:101B5000A0915002B0915102809384049093850427
:101B6000A0938604B093870484E080938804F09265
:101B70006104E09260048CEB94E0909365048093A0
:101B800064048FE690E00E941A1AFC011282168209
:101B90001582178284E792E091838083DF015C964F
:101BA000CD01CC961C9214961C921E9213971596FA
:101BB0001C92159716968A179B07A1F7DF01AE595D
:101BC000BF4F84E894E011969C938E93129680E820
:101BD00094E011969C938E93129684E08C931196C8
:101BE0008C93179780E794E011969C938E931896A8
:101BF0008AE090E011969C938E93129684EF91E088
:101C000011969C938E93139611961C921E92519747
:101C10001D921D921D921C92139750961C92F09348
:101C20006904E0936804DF91CF911F910F91FF90B9
:101C3000EF900895CF93DF93CDB7DEB7ED970FB652
:101C4000F894DEBF0FBECDBF789484B5826084BDAA
:101C500084B5816084BD85B5826085BD85B58160B0
:101C600085BD80916E00816080936E00109281002E
:101C700080918100826080938100809181008160E9
:101C800080938100809180008160809380008091AA
:101C9000B10084608093B1008091B0008160809336
:101CA000B0008091910082608093910080919100BA
:101CB000816080939100809190008160809390007A
:101CC0008091A10082608093A1008091A100816039
:101CD0008093A1008091A00081608093A0008091FA
:101CE0002101826080932101809121018160809394
:101CF00021018091200181608093200180917A00F0
:101D0000846080937A0080917A00826080937A0068
:101D100080917A00816080937A0080917A00806857
:101D200080937A001092C10061E08DE00E94CA02A7
:101D30008DE090E00E941A1A8C01DC0113961C922F
:101D40001E92129786E592E011969C938E931996B7
:101D50001C92199787E214968C93149784E11A9633
:101D60008C931A9784E01B968C931B971C961C925D
:101D700010936704009366041092500410924F046D
:101D800010924E0410924D040E94AE0481EA91E03C
:101D900090934C0480934B0482EA91E090934A0420
:101DA00080934904F80115828385823010F098E011
:101DB0009583D80118968C9362E370E080E090E000
:101DC0000E942B03F8016485C8010E949E0568EEFD
:101DD00073E080E090E00E942B0360E3C8010E9462
:101DE00089067BE4E72E76E4F72EC7010197F1F729
:101DF00060E3C8010E948906C7010197F1F760E31B
:101E0000C8010E94890683E592E00197F1F760E23C
:101E1000C8010E948906D80115966C91606240E065
:101E2000C8010E94A20684E0F801868340E06CE0CD
:101E3000C8010E94A206C8010E94100782E0D801D2
:101E400017968C9340E066E0C8010E94A20640E02D
:101E500062E0C8010E94A2068BE39FE10197F1F7BF
:101E600040E152E060E080916604909167040E9436
:101E7000B90648E052E061E0809166049091670401
:101E80000E94B90640E052E062E0809166049091C1
:101E900067040E94B906809166049091670428E067
:101EA000FC01248760E00E949E0580916604909169
:101EB00067040E94100740E060E080916604909102
:101EC00067040E94E1066AE772E0809166049091DF
:101ED00067040E942E076AE070E080E090E00E94B4
:101EE0002B0361E08DE00E946E020E94DE031092DF
:101EF000C7041092C60460E088E20E946E0260E0AF
:101F000086E20E946E0260E084E20E946E0270E04F
:101F100060E08DE290E00E949C028C0163E070E042
:101F20008FE290E00E949C02082B192B66E070E083
:101F30008EE290E00E949C02082B192B69E070E071
:101F40008AE290E00E949C02082B192B6CE070E062
:101F50008CE290E00E949C02802B912B2091F40453
:101F60003091F5048217930741F09093C704809352
:101F7000C6049093F5048093F40460E08DE20E941F
:101F80006E0260E08FE20E946E0260E08EE20E94CC
:101F90006E0260E08CE20E946E0260E08AE20E94C3
:101FA0006E0270E060E088E290E00E949C028C018A
:101FB00063E070E086E290E00E949C02082B192BFF
:101FC00066E070E084E290E00E949C02802B912BFE
:101FD0002091C8043091C9048217930721F090938F
:101FE000C9048093C8042091C6043091C70480912D
:101FF000E2049091E3042817390799F481E0809373
:10200000C4041092C50460E085E00E946E020E9444
:10201000DE036093BC047093BD048093BE04909370
:10202000BF042091C6043091C7048091E6049091CA
:10203000E7042817390789F481E08093C50460E03C
:1020400087E00E946E020E94DE036093BC047093DE
:10205000BD048093BE049093BF042091C6043091C8
:10206000C7048091E4049091E5042817390791F49E
:102070001092C4041092C50460E089E00E946E02D0
:102080000E94DE036093BC047093BD048093BE0481
:102090009093BF042091C6043091C7048091D0046E
:1020A0009091D1042817390709F0B2C080919704A4
:1020B000882349F080919904811105C0809198048A
:1020C000882309F4A5C0E0918B04F0918C04138659
:1020D0009F0128583F4FC0A0D1A0E2A0F3A0D90192
:1020E0004D915D916D917C91C41AD50AE60AF70A6B
:1020F000285F3F4FD9014D915D916D917C91D70142
:10210000C601841B950BA60BB70B428153816481DA
:1021100075816C017D01C422D522E622F72224506C
:102120003109D9014D915D916D917C91D701C60125
:10213000842B952BA62BB72B82839383A483B58303
:1021400061E08091BA040E946E0262E370E080E078
:1021500090E00E942B0361E08091B8040E946E021F
:1021600062E370E080E090E00E942B0360E08091E9
:10217000B6040E946E0262E370E080E090E00E948C
:102180002B0360E08091B4040E946E0262E370E071
:1021900080E090E00E942B0361E08091B0040E94F7
:1021A0006E028091A604811108C068EC70E080E0A6
:1021B00090E00E942B030E945E0380918F04909117
:1021C0009004181619060CF01DC362E370E080E05D
:1021D00090E00E942B0360E08091B6040E946E02A2
:1021E00062E370E080E090E00E942B0361E0809168
:1021F000B4040E946E021092990481E080939704C7
:102200001092980468EC70E080E090E00E942B034C
:102210002091C6043091C7048091D8049091D904CC
:102220002817390709F065C08091A604882309F4AE
:1022300060C0E0918B04F0918C0481E0838740A121
:1022400051A162A173A1DF01A858BF4F8D919D914B
:102250000D90BC91A02D8A019B01081B190B2A0B24
:102260003B0BDF01A058BF4F8D919D910D90BC910C
:10227000A02D081B190B2A0B3B0B82819381A48193
:10228000B581082319232A233B2302831383248344
:102290003583DF01A458BF4F8D919D910D90BC9166
:1022A000A02DF284F110C3C2481B590B6A0B7B0BA3
:1022B00004231523262337230283138324833583A2
:1022C00061E08091B8040E946E0260E08091B404E5
:1022D0000E946E0260E08091B6040E946E0260E08F
:1022E0008091B0040E946E0281E080939804109265
:1022F00099042091C6043091C7048091D60490912E
:10230000D7042817390711F40E9474032091C604DA
:102310003091C7048091D4049091D50428173907CF
:1023200009F074C0E0918B04F0918C049F0128584F
:102330003F4FC0A0D1A0E2A0F3A0D9014D915D9183
:102340006D917C91D701C601841B950BA60BB70B31
:1023500042815381648175816C017D01C422D52243
:10236000E622F722285F3F4FD9014D915D916D9193
:102370007C91D701C601842B952BA62BB72B82838A
:102380009383A483B5838091970481110E94740381
:1023900060E08091BA040E946E028091A6048111CF
:1023A00013C062E370E080E090E00E942B0361E0E4
:1023B0008091B0040E946E020E945E0368EC70E09F
:1023C00080E090E00E942B0380918F049091900414
:1023D00060E0181619060CF033C28091B6040E9412
:1023E0006E0261E08091B4040E946E0262E370E0CC
:1023F00080E090E00E942B0360E08091B8040E948E
:102400006E0210929A0481E0809399042091C60490
:102410003091C7048091D2049091D30428173907D2
:1024200009F072C0E0918B04F0918C049F01205858
:102430003F4FC0A0D1A0E2A0F3A0D9014D915D9182
:102440006D917C91D701C601841B950BA60BB70B30
:1024500042815381648175816C017D01C422D52242
:10246000E622F72228503109D9014D915D916D91F5
:102470007C91D701C601842B952BA62BB72B828389
:102480009383A483B5838091970481110E94740380
:1024900060E08091BA040E946E028091A6048111CE
:1024A00013C062E370E080E090E00E942B0361E0E3
:1024B0008091B0040E946E020E945E0368EC70E09E
:1024C00080E090E00E942B0380918F049091900413
:1024D00060E097FFBDC18091B6040E946E0261E08A
:1024E0008091B4040E946E0262E370E080E090E0AC
:1024F0000E942B0360E08091B8040E946E0210924B
:102500009A0481E0809399042091C6043091C70415
:102510008091CE049091CF0428173907F1F480916F
:10252000970481111AC060E08091B4040E946E0289
:1025300061E08091B6040E946E0260E08091B80470
:102540000E946E0268EC70E080E090E00E942B0335
:1025500061E08091B8040E946E020E94DE03009147
:10256000BC041091BD042091BE043091BF046B01E6
:102570007C01C01AD10AE20AF30A0091C00410914A
:10258000C1042091C2043091C3040C151D052E0511
:102590003F05A4F46093BC047093BD048093BE0413
:1025A0009093BF0461E085E00E946E0261E087E0E5
:1025B0000E946E0261E089E00E946E028091C80470
:1025C0009091C904E0918D04F0918E0442A153A131
:1025D0004823592321E04115510509F420E02093B7
:1025E000A60424A135A12823392361E0232B09F473
:1025F00060E06093A70426A137A12823392361E076
:10260000232B09F460E06093A80420A531A52823BA
:10261000392361E0232B09F460E06093A90422A52B
:1026200033A52823392361E02115310509F460E041
:102630006093AA0464A575A58623972361E0892B7E
:1026400009F460E06093AB048091AD04882309F441
:1026500007C11092AD04452B31F164EF71E080E0C9
:1026600090E00E942B0361E08091B0040E946E0212
:1026700060E08091B2040E946E0268EE73E080E038
:1026800090E00E942B0361E08091B2040E946E02F0
:1026900060ED77E080E090E00E942B0360E08091A5
:1026A000B0040E946E0280918B0490918C040E9471
:1026B000730564E170E080E090E00E942B0380915C
:1026C0005104909152040196863091050CF4FBC0A0
:1026D000109252041092510480910A0591E08927CA
:1026E00080930A0590910B059923F9F0409102051A
:1026F00050910305609104057091050500917C05DA
:1027000010917D0520917E0530917F05882309F485
:10271000C1C0402B512B622B732B40930205509369
:1027200003056093040570930505C0900205D090E1
:102730000305E0900405F090050580910605909151
:102740000705A0910805B0910905892F9A2FAB2F95
:10275000BB27A7FDBA950696880F991FFC01E0508C
:10276000FB4FB081BDAB1CAAECA9FDA9CF01FF0FA7
:10277000AA0BBB0BC80ED91EEA1EFB1E80910C05CE
:1027800090910D05092E000CAA0BBB0BC80ED91E8B
:10279000EA1EFB1E61E08DE00E946E0260E08BE0AD
:1027A0000E946E0261E08BE00E946E0201E010E088
:1027B000812C912C54018394809100059091010506
:1027C000801791070CF483C0D701C6018821992195
:1027D000AA21BB2161E0892B8A2B8B2B09F460E0B5
:1027E0008DE00E946E02880C991CAA1CBB1C60E044
:1027F0008BE00E946E0261E08BE00E946E020F5F30
:102800001F4FDACF62E370E080E090E00E942B037C
:1028100060E08091B4040E946E0262E370E080E0A8
:1028200090E00E942B0361E08091B604E2CC802B03
:10283000912BA22BB32B82839383A483B58340CDAA
:102840008091B4040E946E0261E08091B604CCCD08
:102850008091B4040E946E0261E08091B60442CE81
:1028600080919904882331F02115310519F00E94D7
:1028700074031FCF80919704882309F41ACF232B68
:1028800009F417CF80919D0490919E04892B09F043
:1028900010CFEDCF8091200590912105A0912205C8
:1028A000B0912305801B910BA20BB30B84239523BE
:1028B000A623B7238093020590930305A0930405F4
:1028C000B093050532CF909352048093510440E0B9
:1028D00060E080916604909167040E94E106E091B7
:1028E0006004F091610406A517A501151105B9F55D
:1028F0000E94DE031BA21AA21DA21CA21FA21EA2DE
:1029000028EE33E040E050E00E94F019CA01B9011E
:102910002AE0AE014F5F5F4F0E94A419BE016F5FB6
:102920007F4FCE0182960E94D7078EA19FA140972C
:1029300048F441E050E068E173E0CE0182960E94E5
:102940006507F3CFBE016E5D7F4F80916604909165
:1029500067040E94A301CE0182960E943508E0918F
:102960006004F0916104848195818017910741F49E
:1029700061E872E080916604909167040E942E07DE
:10298000E0916004F091610486819781801791073E
:1029900041F462E972E080916604909167040E94BC
:1029A0002E07E0916004F091610480859185801785
:1029B000910741F463EA72E08091660490916704A4
:1029C0000E942E07E0916004F09161048285938556
:1029D0008017910741F464EB72E080916604909156
:1029E00067040E942E07E0916004F09161048485E1
:1029F00095858017910741F465EC72E0809166043B
:102A0000909167040E942E07E0916004F0916104A8
:102A1000868597858017910741F466ED72E0809175
:102A20006604909167040E942E07E0916004F09183
:102A30006104808991898017910741F467EE72E003
:102A400080916604909167040E942E07E0916004D3
:102A5000F0916104828993898017910741F468EFAE
:102A600072E080916604909167040E942E07E091C5
:102A70006004F0916104848995898017910741F47D
:102A800069E073E080916604909167040E942E07CC
:102A9000E0916004F091610486899789801791071D
:102AA00041F46AE173E080916604909167040E94AA
:102AB0002E07E0916004F0916104808D918D801764
:102AC000910741F46BE273E0809166049091670492
:102AD0000E942E07E0916004F0916104828D938D35
:102AE0008017910741F46CE373E080916604909144
:102AF00067040E942E07E0916004F0916104848DC8
:102B0000958D8017910741F46DE473E08091660420
:102B1000909167040E942E07E0916004F091610497
:102B2000868D978D8017910741F46EE573E0809153
:102B30006604909167040E942E07E0916004F09172
:102B4000610480A191A18017910741F46FE673E0C1
:102B500080916604909167040E942E0741E060E036
:102B600080916604909167040E94E10687E00E94CC
:102B7000450231E020E0019709F030E0032F122FE9
:102B800089E00E944502019711F40E5F1F4F85E016
:102B90000E944502019711F40C5F1F4F83E00E94D1
:102BA0004502019711F4085F1F4F83E20E9445021E
:102BB000019711F4005F1F4FB801CE0101960E94EA
:102BC000E1071BA21AA21DA21CA21FA21EA2BE01E7
:102BD0006F5F7F4FCE0182960E940D0841E050E06A
:102BE00068E173E0CE0182960E946507811104C0FE
:102BF000CE0182960E9491071FA61EA619AA18AAA6
:102C00001BAA1AAABE016E5D7F4FCE018E960E944E
:102C10000D08CE0182960E943508CE0101960E94D1
:102C200035088AA99BA90697B8F460E873E0CE013D
:102C300001960E942408BE01625D7F4FCE0101967D
:102C40000E94A307BC01CE018E960E940D08CE0102
:102C500001960E943508E5CF009166041091670443
:102C600062E873E0CE0101960E942408BE01625D15
:102C70007F4FCE0101960E94A307BC01C8010E94AC
:102C8000A301CE0101960E94350841E063E18091E5
:102C90006604909167040E94E106E0916404F0915B
:102CA0006504208531858091660490916704311117
:102CB00008C060E0211106C068E173E00E942E07A1
:102CC00008C061E0DC01ED91FC910190F081E02D04
:102CD000199542E060E080916604909167040E943B
:102CE000E106E0916004F091610462817381CE019C
:102CF00088960E94E1078CA59DA50797B8F460E827
:102D000073E0CE0101960E942408BE01685D7F4FEA
:102D1000CE0101960E94A307BC01CE0188960E94B5
:102D20000D08CE0101960E943508E5CF009166049A
:102D30001091670466E873E0CE0101960E942408B2
:102D4000BE01685D7F4FCE0101960E94A307BC01C2
:102D5000C8010E94A301CE0101960E94350842E0FD
:102D600063E180916604909167040E94E106E0911E
:102D70006204F09163042685378580916604909102
:102D80006704311108C060E0211106C068E173E0FA
:102D90000E942E0708C061E0DC01ED91FC910190DA
:102DA000F081E02D19950091680410916904F801F3
:102DB000E459FF4FFFABEEAB81E080830E94DE035E
:102DC0009801245A3F4F39AF28AFD901CD90DD90FB
:102DD000ED90FC90AB01BC014C195D096E097F09B7
:102DE000F801E859FF4F80819181B0E0A0E084179D
:102DF0009507A607B70708F076C1D12C2801B6E6DB
:102E00004B0E511C7801E2E6EE0EF11CD2018C91C2
:102E1000D81690F4F701A081B181AD0DB11DF80174
:102E200080819181FC012081318142E06C91C80157
:102E3000F9011995D394EACF312C980129593F4FC4
:102E40003BAF2AAF380134E6630E711CC8018E59BE
:102E50009F4F9DAF8CAFAAADBBAD8C91381608F0DB
:102E60007EC0C32CD12CF301A081B181CD018C0D8A
:102E70009D1DD801ED91FC910190F081E02D41E084
:102E8000DC016C91C8011995F301A081B181CD01DC
:102E90008C0D9D1DD801ED91FC910280F381E02DF8
:102EA00040E0DC016C91C801199581E090E0A0E060
:102EB000B0E0032C04C0880F991FAA1FBB1F0A94FF
:102EC000D2F74C015C01A094B094212CD801ED9173
:102ED000FC91D2018C91281618F5E22CF12CACADA6
:102EE000BDAD8D919C91DC01AE0DBF1D0480F581BF
:102EF000E02D6C91C8011995EE0CFF1CF801EE0D48
:102F0000FF1D892B41F48085918588299929918716
:102F100080872394DBCF808591858A219B21F7CF01
:102F2000D3018D919C91DC01AC0DBD1D0280F3811C
:102F3000E02D41E06C91C8011995F30180819181E8
:102F4000C80ED91ED801ED91FC910190F081E02DC1
:102F500040E0D6016C91C801199533947CCF78017B
:102F6000C801CC966801F601278D30A1232B31F4DE
:102F7000148E2FEF3FEF368F258F11A236E0C30E50
:102F8000D11C8C159D0579F7912C180186E6280E29
:102F9000311C280197E6490E511C3801A0E66A0E43
:102FA000711CF1018081981608F053C0812CA92C66
:102FB000B12CF4E0AF0EB11CAA0CBB1CA00EB11ECC
:102FC000D2018C91881608F042C0F50140815181F0
:102FD000082C02C0569547950A94E2F7989EC001C6
:102FE0001124880D911DF80160E0258D368D821722
:102FF000930709F498C16F5F36966A30B1F740FFC6
:1030000024C0F80170E060E0248D211118C0D301C4
:10301000ED91FC91E80FF91F2081B6E0B69FF00119
:10302000B79FF00D1124E00FF11F248F968F858F2D
:1030300010A2178E41E0C8010E94150406C06F5F00
:103040007F4F36966A307105F9F68394B9CF939421
:10305000A8CFB12CF70181A18111B82EF6E0EF0EB7
:10306000F11CCE14DF04B1F70E94DE03A8ADB9ADA8
:103070006D937D938D939C931397BB20A1F1F801E1
:1030800081A1882381F1878D90A1019761F5148D2D
:1030900011112DC06CE873E0CE0101960E94240846
:1030A0006AE674E0CE0101960E94A3071BA21AA251
:1030B0001DA21CA21FA21EA2BC01CE0182960E94CC
:1030C0000D08CE0101960E9435088EA19FA106979A
:1030D00008F0F8C041E050E068E173E0CE0182966C
:1030E0000E946507F2CFAEA9BFA91C92D3CF8091F1
:1030F0006E0490916F04049708F470C0133209F0C5
:1031000070C083E090E00E948B0111E0FC0180819F
:10311000813309F010E090E080E00E948B01DC0137
:103120008C91813489F481E090E00E948B01FC0154
:103130008081843309F48FC00CF07CC0803309F4A3
:1031400082C0813309F484C090E080E00E948B014A
:10315000DC018C91823489F481E090E00E948B0143
:10316000FC018081823309F48FC00CF07DC0803374
:1031700009F482C0813309F484C090E080E00E94A9
:103180008B01DC018C91833421F481E090E00E947A
:103190008B0190E080E00E948B01FC0180818434EF
:1031A00009F07BC081E090E00E948B01DC01EC9192
:1031B000E053E83008F071C00E2E000CFF0B612FB9
:1031C0008827EA51F74E8F4F0C94121A4A19541956
:1031D000561958195A195C195E196019133209F4F5
:1031E0005CC01A8219821C821B821E821D826AE6C2
:1031F00074E0CE0101960E940D081AA31BA241E0C3
:1032000050E0BE016E5D7F4FCE0101960E946507C2
:10321000811104C0CE0101960E949107BE016F5F2B
:103220007F4F8AE694E00E940D08CE0101960E942D
:10323000350830CF8633A9F08CF0873309F084CF7E
:10324000612F83E002C0612F82E10E946E027CCF79
:10325000612F8FE0FACF612F89E0F7CF612F87E0F0
:10326000F4CF612F85E0F1CF833389F0843309F007
:1032700084CF612F88E002C0612F80E10E946E023E
:103280007CCF612F8EE0FACF612F8CE0F7CF612FDA
:103290008AE0F4CF8DE20E946E0269E173E08AE673
:1032A00094E00E94D707F6CE8FE2F5CF8EE2F3CFFF
:1032B0008CE2F1CF8AE2EFCF88E2EDCF86E2EBCF6E
:1032C00084E2E9CF40E06FE080916604909167046A
:1032D0000E94E106BE016E5D7F4F80916604909171
:1032E00067040E94A301CE0182960E943508CE0198
:1032F00088960E943508CE018E960E94350860E0BF
:103300008DE00E946E0264E170E080E090E00E9437
:103310002B03E0E0F0E0EF2B11F40C94710F0E940E
:1033200000000C94710F417086CE8AE694E00C94F4
:103330003508BB274A3031F4992322F4BDE2909539
:1033400081959F4F0C94C719BB27FA01A62F6217CE
:10335000710581059105330B30FB66F0AA27660FD6
:10336000771F881F991FAA1FA21710F0A21B639531
:103370003850A9F7A05DAA3308F0A95DA19336F7EC
:10338000B111B1931082CA010C94E019BB27FB0163
:103390005527AA27880F991FAA1FA41710F0A41B4E
:1033A00083955051B9F7A05DAA3308F0A95DA193A8
:1033B000009779F7B111B1931192CB010C94E019F8
:1033C000DC01FC01672F71917723E1F7329704C08C
:1033D0007C916D9370836291AE17BF07C8F3089517
:1033E000A1E21A2EAA1BBB1BFD010DC0AA1FBB1F09
:1033F000EE1FFF1FA217B307E407F50720F0A21B7B
:10340000B30BE40BF50B661F771F881F991F1A94E7
:1034100069F760957095809590959B01AC01BD0111
:10342000CF010895EE0FFF1F881F8BBF0790F69105
:10343000E02D19940F931F93CF93DF938230910562
:1034400010F482E090E0E0919E05F0919F0530E05D
:1034500020E0B0E0A0E0309799F42115310509F49F
:103460004AC0281B390B24303105D8F58A819B814D
:103470006115710589F1FB0193838283FE0111C0FF
:10348000408151810281138148175907E0F04817A4
:10349000590799F4109761F012960C9312971396AE
:1034A0001C933296CF01DF91CF911F910F91089518
:1034B00000939E0510939F05F4CF2115310551F01F
:1034C0004217530738F0A901DB019A01BD01DF0162
:1034D000F801C1CFEF01F9CF90939F0580939E052E
:1034E000CDCFFE01E20FF31F81939193225031095A
:1034F00039832883D7CF20919C0530919D05232BBC
:1035000041F420911A0230911B0230939D052093C3
:103510009C0520911802309119022115310541F4C2
:103520002DB73EB740911C0250911D02241B350B54
:10353000E0919C05F0919D05E217F307A0F42E1B86
:103540003F0B2817390778F0AC014E5F5F4F241707
:10355000350748F04E0F5F1F50939D0540939C0523
:10356000819391939FCFF0E0E0E09CCFCF93DF93E6
:103570000097E9F0FC01329713821282A0919E0518
:10358000B0919F05ED0130E020E01097A1F420817B
:103590003181820F931F20919C0530919D05281742
:1035A000390709F061C0F0939D05E0939C05DF9118
:1035B000CF910895EA01CE17DF07E8F54A815B81D4
:1035C0009E0141155105B1F7E901FB83EA83499159
:1035D0005991C40FD51FEC17FD0761F480819181CB
:1035E0000296840F951FE9019983888382819381D4
:1035F0009B838A83F0E0E0E012968D919C91139773
:103600000097B9F52D913C911197CD010296820F4B
:10361000931F20919C0530919D052817390739F695
:10362000309751F510929F0510929E05B0939D051D
:10363000A0939C05BCCFD383C28340815181840F6A
:10364000951FC817D90761F44E5F5F4F8881998134
:10365000480F591F518340838A819B8193838283C2
:103660002115310509F0B0CFF0939F05E0939E0539
:103670009ECFFD01DC01C0CF13821282D7CF4F92C3
:103680005F926F927F928F929F92AF92BF92CF92F2
:10369000DF92EF92FF920F931F93CF93DF938C01F2
:1036A000009799F4CB01DF91CF911F910F91FF907B
:1036B000EF90DF90CF90BF90AF909F908F907F90D2
:1036C0006F905F904F900C941A1AFC01E60FF71F51
:1036D0009C0122503109E217F30708F4AEC0D9016A
:1036E000CD91DC911197C617D70720F1C530D105D0
:1036F00078F0CE0104978617970750F0C61BD70BBA
:103700002297C193D1936D937C93CF010E94B61AF7
:10371000C801DF91CF911F910F91FF90EF90DF9043
:10372000CF90BF90AF909F908F907F906F905F9061
:103730004F9008955B01AC1ABD0A4C018C0E9D1E82
:10374000A0919E05B0919F05512C412CF12CE12CAC
:10375000109731F580919C0590919D0588159905EC
:1037600009F05CC04616570608F058C08091180250
:1037700090911902009741F48DB79EB740911C02B9
:1037800050911D02841B950BE817F90708F055C0EE
:10379000F0939D05E0939C05F90171836083B8CF98
:1037A0008D919C91119712966C90129713967C9024
:1037B0001397A815B90559F56C0142E0C40ED11C48
:1037C000CA14DB0420F1AC014A195B09DA01129634
:1037D000159780F06282738251834083D9016D9383
:1037E0007C93E114F10471F0D7011396FC93EE93EE
:1037F00012978ECF22968C0F9D1FF90191838083A3
:10380000F301EFCFF0939F05E0939E0581CF48161B
:10381000590608F42C017D01D3019ACFCB010E94F7
:103820001A1A7C01009749F0AE01B8010E94201CD1
:10383000C8010E94B61A87016BCF10E000E068CF84
:10384000FB01DC0102C001900D9241505040D8F7BD
:103850000895FB01DC0101900D920020E1F708952D
:1038600011E0C7E5D1E000E006C0802FFE010E9414
:10387000121A2196011DC835D10780E00807A9F763
:10388000F894FFCF000A0A0A0A0A0000000E0E0E82
:103890000E0E000000080C0E0C0800000000A00531
:1038A000800000004000140054003F0006005B0050
:1038B0004F0066006D007D0007007F006700313219
:1038C000334134353642373839432A3023441618C9
:1038D0001A1C17191B1D000000002807B1018606DD
:1038E000850600000000440517058606ED04100556
:1038F000FD04EE040000000083047F047C04526594
:103900006164792E004B65793A526576657273650C
:10391000204D6F6465004B65793A526563204D6FA9
:10392000646520202020004B65793A446972656304
:1039300074696F6E202020004B65793A506C617974
:103940002020202020202020004B65793A526577E6
:10395000696E64202020202020004B65793A466F54
:1039600072776172642020202020004B65793A53E1
:10397000746F702020202020202020004B65793A91
:10398000506175736520202020202020004B657930
:103990003A526563202020202020202020004B6503
:1039A000793A4E6578742020202020202020004B7A
:1039B00065793A50726576696F7573202020200012
:1039C0004B65793A50726F6772616D20202020201C
:1039D000004B65793A434420506C617920202020C7
:1039E00020004B65793A43442053746F70202020A7
:1039F0002020004B65793A4344205061757365205F
:103A000020202000300043443A00544150453A0001
:023A10003E0076
:10E000000D9489F10D94B2F10D94B2F10D94B2F129
:10E010000D94B2F10D94B2F10D94B2F10D94B2F1F0
:10E020000D94B2F10D94B2F10D94B2F10D94B2F1E0
:10E030000D94B2F10D94B2F10D94B2F10D94B2F1D0
:10E040000D94B2F10D94B2F10D94B2F10D94B2F1C0
:10E050000D94B2F10D94B2F10D94B2F10D94B2F1B0
:10E060000D94B2F10D94B2F10D94B2F10D94B2F1A0
:10E070000D94B2F10D94B2F10D94B2F10D94B2F190
:10E080000D94B2F10D94B2F10D94B2F10D94B2F180
:10E090000D94B2F10D94B2F10D94B2F10D94B2F170
:10E0A0000D94B2F10D94B2F10D94B2F10D94B2F160
:10E0B0000D94B2F10D94B2F10D94B2F10D94B2F150
:10E0C0000D94B2F10D94B2F10D94B2F10D94B2F140
:10E0D0000D94B2F10D94B2F10D94B2F10D94B2F130
:10E0E0000D94B2F141546D656761323536300041AF
:10E0F000726475696E6F206578706C6F72657220DE
:10E1000073746B3530305632206279204D4C530099
:10E11000426F6F746C6F616465723E004875683F52
:10E1200000436F6D70696C6564206F6E203D200048
:10E130004350552054797065202020203D20005FF9
:10E140005F4156525F415243485F5F3D2000415658
:10E1500052204C696243205665723D20004743437C
:10E160002056657273696F6E203D20004350552024
:10E1700049442020202020203D20004C6F7720663D
:10E18000757365202020203D20004869676820665F
:10E190007573652020203D200045787420667573D6
:10E1A00065202020203D20004C6F636B2066757336
:10E1B000652020203D20004D617220203720323024
:10E1C000313300312E362E3800342E332E350056A2
:10E1D00023202020414444522020206F7020636F70
:10E1E00064652020202020696E73747275637469E1
:10E1F0006F6E2061646472202020496E74657272B3
:10E20000757074006E6F20766563746F7200726A49
:10E210006D702020006A6D70200057686174207056
:10E220006F72743A00506F7274206E6F7420737541
:10E2300070706F72746564004D7573742062652030
:10E2400061206C6574746572002000577269747483
:10E25000696E672045450052656164696E672045B7
:10E26000450045452065727220636E743D00504F35
:10E27000525400303D5A65726F2061646472003FF1
:10E280003D43505520737461747300403D454550C3
:10E29000524F4D207465737400423D426C696E6B41
:10E2A000204C454400453D44756D70204545505215
:10E2B0004F4D00463D44756D7020464C415348001B
:10E2C000483D48656C70004C3D4C69737420492F83
:10E2D0004F20506F72747300513D51756974005234
:10E2E0003D44756D702052414D00563D73686F7707
:10E2F00020696E7465727275707420566563746FF0
:10E30000727300593D506F727420626C696E6B00BD
:10E310002A0011241FBECFEFD1E2DEBFCDBF01E046
:10E320000CBF12E0A0E0B2E0EEE1FDEF03E00BBFB6
:10E3300002C007900D92A030B107D9F712E0A0E01B
:10E34000B2E001C01D92AE30B107E1F70F9460F367
:10E350000D948DFE01E20EBF0FEF0DBF11241FBE05
:10E360000D9460F30D9400F020E030E040ED57E0B4
:10E3700005C0FA013197F1F72F5F3F4F2817390792
:10E38000C0F308959C01260F311DC901A0E0B0E043
:10E390002F5F3F4FABBFFC018791882361F08093D3
:10E3A000C6008091C00086FFFCCF8091C0008064D1
:10E3B0008093C000EACF08958DE08093C6008091DD
:10E3C000C00086FFFCCF8091C00080648093C000B5
:10E3D0008AE08093C6008091C00086FFFCCF8091C8
:10E3E000C00080648093C00008950F94C2F10F9420
:10E3F000DCF10895FC019081992359F09093C600B7
:10E400008091C00086FFFCCF8091C0008064809323
:10E41000C0003196992379F70895282F982F929567
:10E420009F70892F805D8A3308F0895F8093C600D2
:10E430008091C00086FFFCCF8091C00080648093F3
:10E44000C000822F8F70982F905D9A3308F0995FEB
:10E450009093C6008091C00086FFFCCF8091C000E1
:10E4600080648093C00008959C01FB01853691056E
:10E470001CF46330710594F0C90164E670E00F94F8
:10E480002EFE605D7F4F6093C6008091C00086FFC6
:10E49000FCCF8091C00080648093C0002B30310598
:10E4A00014F43297B4F0C90164E670E00F942EFEC4
:10E4B0006AE070E00F942EFE605D7F4F6093C600AF
:10E4C0008091C00086FFFCCF8091C0008064809363
:10E4D000C000C9016AE070E00F942EFEC0968093E0
:10E4E000C6008091C00086FFFCCF8091C000806490
:10E4F0008093C00008951F93182F8EE692EE60E07F
:10E500000F94C2F11093C6008091C00086FFFCCF2B
:10E510008091C00080648093C0000F94DCF11F9153
:10E5200008952F923F924F925F926F927F928F92B7
:10E530009F92AF92BF92CF92DF92EF92FF920F9392
:10E540001F93DF93CF93CDB7DEB762970FB6F894E2
:10E55000DEBF0FBECDBF382E622ECA01DB015C01CB
:10E560006D01772420E2222E2E010894411C511CBB
:10E570008BC081E0A81680E0B80681E0C80680E084
:10E58000D80628F0C601AA27BB270F940DF2BB2797
:10E59000AD2D9C2D8B2D0F940DF28A2D0F940DF225
:10E5A0002092C6008091C00086FFFCCF8091C00001
:10E5B00080648093C0009DE29093C6008091C0006B
:10E5C00086FFFCCF8091C00080648093C0002092C1
:10E5D000C6008091C00086FFFCCF8091C00080649F
:10E5E0008093C00019828601750188249924A1E0D6
:10E5F0003A1651F03A1620F0B2E03B1661F409C029
:10E600000BBFF701779007C0C7010F9477FE782EF4
:10E6100002C0F7017080872D0F940DF22092C60082
:10E620008091C00086FFFCCF8091C0008064809301
:10E63000C000872D8052F401EF70F0708F3520F408
:10E64000E40DF51D708204C0E40DF51D8EE280839B
:10E650000894E11CF11C011D111D0894811C911CE2
:10E6600090E18916910409F0C2CF80E190E0A0E02A
:10E67000B0E0A80EB91ECA1EDB1E198AC2010F9493
:10E68000FAF10F94DCF16A94662009F072CF629679
:10E690000FB6F894DEBF0FBECDBFCF91DF911F91B3
:10E6A0000F91FF90EF90DF90CF90BF90AF909F9031
:10E6B0008F907F906F905F904F903F902F90089534
:10E6C0002F923F924F925F926F927F928F929F9282
:10E6D000AF92BF92CF92DF92EF92FF920F931F9370
:10E6E000DF93CF93CDB7DEB7CD53D1400FB6F894BB
:10E6F000DEBF0FBECDBF01E20EBF0FEF0DBF94B75F
:10E70000F894A89514BE80916000886180936000A1
:10E7100010926000789493FF05C0E0910002F091A0
:10E7200001021995279A2F9A8091C00082608093E8
:10E73000C00080E18093C40088E18093C1000000A4
:10E74000EE24FF24870144E0A42EB12CCC24DD2448
:10E7500024C0C5010197F1F70894E11CF11C011DCB
:10E76000111D21E2E2162EE4F20620E0020720E06D
:10E77000120718F031E0C32ED12CC801B70127ECE5
:10E780003BE140E050E00F9441FE611571058105C9
:10E79000910519F485B1805885B98091C00087FD35
:10E7A00003C0C114D104A9F2A6014F5F5F4FC25E3E
:10E7B000DE4F59834883CE51D140C25EDE4F8881FF
:10E7C0009981CE51D140019711F00D9410FEC05D9A
:10E7D000DE4F19821882C053D14060E0C15DDE4F28
:10E7E0001882CF52D14088249924C35DDE4F19820C
:10E7F0001882CD52D140C05EDE4F188219821A8233
:10E800001B82C052D140CE5CDE4F188219821A8220
:10E810001B82C253D140EE24FF2487010BBFF701B6
:10E8200007911691C45CDE4F19830883CC53D14005
:10E830000D940BFEC25EDE4F28813981CE51D1404E
:10E840002130310509F52091C600C25EDE4F1982E4
:10E850001882CE51D14022C02F5F3F4F4F4F5F4FA4
:10E86000213082E138078AE7480780E0580780F0C6
:10E87000C45CDE4FE881F981CC53D140EF5FFF4F9C
:10E8800019F0EE27FF27099420E030E040E050E047
:10E890008091C00087FFE0CF2091C600C35DDE4FAE
:10E8A00048815981CD52D1404F5F5F4FC35DDE4FEC
:10E8B00059834883CD52D140213209F063C64A3092
:10E8C000510508F05FC60894811C911C53E0851621
:10E8D000910409F059C600E010E018C081E280936D
:10E8E000C6008091C00086FFFCCF8091C00080648C
:10E8F0008093C0002F5F3F4F2931310579F70F9486
:10E90000DCF10F5F1F4F0530110519F020E030E0FA
:10E91000E5CF10920A0210920B0210920C02109294
:10E920000D02109206021092070210920802109235
:10E930000902109202021092030210920402109235
:10E9400005028FEE90EE60E00F94F5F180E191EE1C
:10E9500060E00F94C2F18091C00087FFFCCF9091DE
:10E96000C600903608F09F759032B8F09093C600BC
:10E970008091C00086FFFCCF8091C00080648093AE
:10E98000C000A0E2A093C6008091C00086FFFCCF2B
:10E990008091C00080648093C000983409F4D7C18E
:10E9A0009934B8F4923409F459C1933458F490333B
:10E9B00019F1903308F4E3C59F33A1F1903409F0C5
:10E9C000DEC5BDC0953409F470C1963409F0D7C5D1
:10E9D00098C1923509F42BC2933538F49C3409F46C
:10E9E000F5C1913509F0CBC518C2963509F445C279
:10E9F000993509F0C4C567C483E792EE62E00F94CD
:10EA0000F5F110920602109207021092080210927D
:10EA1000090210920A0210920B0210920C0210923C
:10EA20000D0213C18FE792EE62E00F94F5F18FEEC5
:10EA300090EE60E00F94F5F181E291EE60E00F94CA
:10EA4000C2F187EB91EE60E00F94F5F180E391EE77
:10EA500060E00F94C2F184EE90EE60E00F94F5F167
:10EA60008FE391EE60E00F94C2F186E090E061E008
:10EA700070E00F9434F20F94DCF18DE591EE60E0DC
:10EA80000F94C2F189EC91EE60E00F94F5F18EE401
:10EA900091EE60E00F94C2F183EC91EE60E00F9490
:10EAA000F5F18CE691EE60E00F94C2F18EE10F94E7
:10EAB0000DF288E90F940DF281E00F940DF20F949E
:10EAC000DCF18BE791EE60E00F94C2F119E0E0E039
:10EAD000F0E010935700E4918E2F0F940DF20F94F5
:10EAE000DCF18AE891EE60E00F94C2F1E3E0F0E03F
:10EAF00010935700E4918E2F0F940DF20F94DCF1D8
:10EB000089E991EE60E00F94C2F1E2E0F0E0109349
:10EB10005700E4918E2F0F940DF20F94DCF188EAE8
:10EB200091EE60E00F94C2F1E1E0F0E01093570045
:10EB30001491812F0F940DF20F94DCF107CF8BE825
:10EB400092EE62E00F94F5F18BE492EE60E00F94A8
:10EB5000F5F10F94DCF100E010E019C0C8016F2D51
:10EB60000F947FFEFF2031F489E492EE60E00F9471
:10EB7000C2F10BC0F092C6008091C00086FFFCCFAE
:10EB80008091C00080648093C0000F5F1F4FC80158
:10EB900081519F41A0E0B0E0ABBFFC01F790BAE229
:10EBA000FB1621F0E2E000301E07C1F60F94DCF105
:10EBB0000F94DCF187E592EE60E00F94F5F10F948D
:10EBC000DCF1CC24DD2400E010E01EC0C8010F946D
:10EBD00077FEF82E882331F489E492EE60E00F94FA
:10EBE000C2F10BC08093C6008091C00086FFFCCFAD
:10EBF0008091C00080648093C000FE1419F00894D6
:10EC0000C11CD11C0F5F1F4FC80181519F41A0E063
:10EC1000B0E0ABBFFC01E790FAE2EF1621F022E092
:10EC20000030120799F60F94DCF10F94DCF182E6C4
:10EC300092EE60E00F94C2F1C60161E070E00F94C3
:10EC400034F20F94DCF10F94DCF110920202109276
:10EC50000302109204021092050278CE89E992EE26
:10EC600062E00F94F5F1279A2F9A16C02F9880E052
:10EC700090E0E0EDF7E03197F1F7019684369105E9
:10EC8000C1F72F9A80E090E0E0EDF7E03197F1F7DF
:10EC9000019684369105C1F78091C00087FFE6CFC9
:10ECA0008091C00087FFFCCF64C485EA92EE62E0E9
:10ECB0000F94F5F140910202509103026091040219
:10ECC0007091050281E020E10F9491F2809102029F
:10ECD00090910302A0910402B091050280509F4FD1
:10ECE000AF4FBF4F8093020290930302A0930402A0
:10ECF000B093050280509041A040B04008F426CE69
:10ED0000A4CF83EB92EE62E00F94F5F140910602FE
:10ED100050910702609108027091090280E020E1A1
:10ED20000F9491F28091060290910702A09108023F
:10ED3000B091090280509F4FAF4FBF4F80930602A2
:10ED400090930702A0930802B0930902FFCD80ECD4
:10ED500092EE62E00F94F5F183E792EE60E00F949B
:10ED6000F5F18FE792EE60E00F94F5F18BE892EE0B
:10ED700060E00F94F5F189E992EE60E00F94F5F10F
:10ED800085EA92EE60E00F94F5F183EB92EE60E09D
:10ED90000F94F5F180EC92EE60E00F94F5F187ECC2
:10EDA00092EE60E00F94F5F188ED92EE60E00F9442
:10EDB000F5F18FED92EE60E00F94F5F18AEE92EEB0
:10EDC00060E00F94F5F183E093EEBDCD87EC92EE19
:10EDD00062E00F94F5F181E40F947BF282E40F94EA
:10EDE0007BF283E40F947BF284E40F947BF285E45E
:10EDF0000F947BF286E40F947BF287E40F947BF20E
:10EE000088E40F947BF28AE40F947BF28BE40F94F6
:10EE10007BF28CE40F947BF299CD88ED92EE62E068
:10EE20000F94F5F1772473948824992409C48FED05
:10EE300092EE62E00F94F5F140910A0250910B02BC
:10EE400060910C0270910D0282E020E10F9491F22A
:10EE500080910A0290910B02A0910C02B0910D02D8
:10EE600080509F4FAF4FBF4F80930A0290930B0289
:10EE7000A0930C02B0930D0269CD8AEE92EE62E08F
:10EE80000F94F5F184EE90EE60E00F94F5F18FECC5
:10EE900091EE60E00F94F5F1662477244301CC5D98
:10EEA000DE4F19821882C452D140D401C301B695F5
:10EEB000A79597958795CA5DDE4F88839983AA8326
:10EEC000BB83C652D140CC5DDE4FA881B981C4520C
:10EED000D1401196CC5DDE4FB983A883C452D14096
:10EEE000CD0162E070E00F9434F2B0E2B093C6005E
:10EEF0008091C00086FFFCCF8091C0008064809329
:10EF0000C000EDE2E093C6008091C00086FFFCCF18
:10EF10008091C00080648093C000F0E2F093C6004E
:10EF20008091C00086FFFCCF8091C00080648093F8
:10EF3000C000CA5DDE4FE880F9800A811B81C6529D
:10EF4000D140BB27A12F902F8F2D0F940DF2CA5DBA
:10EF5000DE4F8881C652D1400F940DF2B0E2FB2EF5
:10EF6000F092C6008091C00086FFFCCF8091C00067
:10EF700080648093C0000DE30093C6008091C000C0
:10EF800086FFFCCF8091C00080648093C00010E2B7
:10EF90001093C6008091C00086FFFCCF8091C00016
:10EFA00080648093C0008BBEF3012791C65DDE4F65
:10EFB0002883CA52D140A22EBB24CC24DD2408943D
:10EFC000611C711C811C911C8BBEF3018791282E42
:10EFD0003324442455240894611C711C811C911C09
:10EFE0008BBEF3013791C55DDE4F3883CB52D140E4
:10EFF0000894611C711C811C911C8BBEF30147910C
:10F00000C45DDE4F4883CC52D140ADEFEA2EAFEF66
:10F01000FA2EAFEF0A2FAFEF1A2F6E0C7F1C801E57
:10F02000911E142D032DF22CEE24EA0CFB1C0C1D5A
:10F030001D1D0F940DF220E22093C6008091C000A8
:10F0400086FFFCCF8091C00080648093C000C65DC5
:10F05000DE4F8881CA52D1400F940DF230E23093D6
:10F06000C6008091C00086FFFCCF8091C000806404
:10F070008093C000C45DDE4F8881CC52D1400F9494
:10F080000DF240E24093C6008091C00086FFFCCFA5
:10F090008091C00080648093C000C55DDE4F888190
:10F0A000CB52D1400F940DF250E25093C6008091A4
:10F0B000C00086FFFCCF8091C00080648093C000B8
:10F0C0008FEFE8168FEFF80680E0080780E018075A
:10F0D00031F484E092EE60E00F94C2F1DFC0D80119
:10F0E000C7018070907CA070B0708050904CA040A0
:10F0F000B040D1F52FEF3FE340E050E0E222F322B1
:10F1000004231523CA5DDE4FA880B980CA80DB8046
:10F11000C652D140AE0CBF1CC01ED11EAA0CBB1CD7
:10F12000CC1CDD1C8EE092EE60E00F94C2F1BB2798
:10F13000A12F902F8F2D0F940DF28E2D0F940DF285
:10F1400030E23093C6008091C00086FFFCCF8091F2
:10F15000C00080648093C0004EE34093C60080915D
:10F16000C00086FFFCCF87C08EE09EEFA0E0B0E03D
:10F17000E822F9220A231B239CE0E91694E9F90608
:10F1800090E0090790E0190709F088C0C45DDE4FE0
:10F19000A881CC52D140EA2EFF2400E010E0102FCD
:10F1A0000F2DFE2CEE24C55DDE4FB881CB52D14031
:10F1B000EB0EF11C011D111DD601C501817090706F
:10F1C000A070B070DC0199278827E80EF91E0A1F8D
:10F1D0001B1F20EF30E040E050E0A222B322C42207
:10F1E000D52241E1AA0CBB1CCC1CDD1C4A95D1F7F1
:10F1F000EA0CFB1C0C1D1D1D81E090E0A0E0B0E0BE
:10F20000282239224A225B2235E1220C331C441C7D
:10F21000551C3A95D1F7E20CF31C041D151D57013E
:10F220006801AA0CBB1CCC1CDD1C85E192EE60E0E1
:10F230000F94C2F1C801AA27BB270F940DF2BB2778
:10F24000A12F902F8F2D0F940DF28E2D0F940DF274
:10F2500090E29093C6008091C00086FFFCCF809121
:10F26000C00080648093C000AEE3A093C60080918C
:10F27000C00086FFFCCF8091C00080648093C000F6
:10F28000C601AA27BB270F940DF2BB27AD2D9C2DDD
:10F290008B2D0F940DF28A2D0F940DF20F94DCF14B
:10F2A000CC5DDE4FE881F981C452D140F99709F471
:10F2B0004DCBF4E0EF2EF12C012D112D6E0C7F1CA7
:10F2C000801E911EF2CD83E093EE62E00F94F5F183
:10F2D0008AE192EE60E00F94C2F18091C00087FF56
:10F2E000FCCF1091C6001F751093C6008091C0001E
:10F2F00086FFFCCF8091C00080648093C0000F9493
:10F30000DCF1812F81548A3108F036C1163409F4BA
:10F3100095C0173490F4133409F44EC0143430F40B
:10F320001134F1F0123409F01DC130C0143409F465
:10F3300059C0153409F016C16BC01A3409F4C4C0A1
:10F340001B3438F4173409F48FC0183409F00AC19B
:10F35000A1C01B3409F4D2C01C3409F003C1E8C0B9
:10F360008FEF81B90DC082B1809582B980E090E0C5
:10F37000E0EDF7E03197F1F70196883C9105C1F790
:10F380008091C00087FFEFCF12B8EFC08FEF84B934
:10F390000DC085B1809585B980E090E0E0EDF7E0A3
:10F3A0003197F1F70196883C9105C1F78091C00033
:10F3B00087FFEFCF15B8D9C08FEF87B90DC088B1DF
:10F3C000809588B980E090E0E0EDF7E03197F1F7C3
:10F3D0000196883C9105C1F78091C00087FFEFCF6F
:10F3E00018B8C3C08FEF8AB90DC08BB180958BB9A7
:10F3F00080E090E0E0EDF7E03197F1F70196883C8E
:10F400009105C1F78091C00087FFEFCF1BB8ADC059
:10F410008FEF8DB90DC08EB180958EB980E090E0F0
:10F42000E0EDF7E03197F1F70196883C9105C1F7DF
:10F430008091C00087FFEFCF1EB897C08FEF80BBD1
:10F440000DC081B3809581BB80E090E0E0EDF7E0F6
:10F450003197F1F70196883C9105C1F78091C00082
:10F4600087FFEFCF11BA81C08FEF83BB0DC084B38C
:10F47000809584BB80E090E0E0EDF7E03197F1F714
:10F480000196883C9105C1F78091C00087FFEFCFBE
:10F4900014BA6BC08FEF809301010FC080910201FD
:10F4A00080958093020180E090E0E0EDF7E03197F5
:10F4B000F1F70196883C9105C1F78091C00087FF64
:10F4C000EDCF1092020151C08FEF809304010FC065
:10F4D0008091050180958093050180E090E0E0ED4A
:10F4E000F7E03197F1F70196883C9105C1F78091DB
:10F4F000C00087FFEDCF1092050137C08FEF8093DA
:10F5000007010FC08091080180958093080180E079
:10F5100090E0E0EDF7E03197F1F70196883C910536
:10F52000C1F78091C00087FFEDCF109208011DC088
:10F530008FEF80930A010FC080910B01809580931B
:10F540000B0180E090E0E0EDF7E03197F1F70196F4
:10F55000883C9105C1F78091C00087FFEDCF1092E4
:10F560000B0103C085E292EEEEC98091C00087FFD7
:10F57000FCCF8091C600EAC988E392EEE4C98CE131
:10F5800091EEE1C988249924933011F1943028F444
:10F59000913089F09230B8F408C0953061F195301F
:10F5A000F0F0963009F048C043C02B3109F042C951
:10F5B00091E06BE13FC96227C15DDE4F2883CF52E6
:10F5C000D14092E037C9B22FA0E0622793E032C960
:10F5D000822F90E0A82BB92B622794E02BC92E3004
:10F5E00009F039C3622795E0C05DDE4F19821882A9
:10F5F000C053D1401FC9E1E0F0E0EC0FFD1FC05D3A
:10F60000DE4F08811981C053D140E00FF11F2083E4
:10F610000F5F1F4FC05DDE4F19830883C053D14079
:10F6200062270A171B0709F005C9D80196E002C92D
:10F63000261709F010C303C0973009F0FBC87724E0
:10F640009981933109F412C19431C8F4963009F4C8
:10F65000D8C0973050F4923009F406C1933009F4C1
:10F660006DC0913009F059C253C0913109F477C08F
:10F67000923108F0BBC0903109F04FC2F5C098310B
:10F6800009F487C0993150F4953109F4EFC09531F0
:10F6900008F4C6C1963109F040C2C2C19A3109F4DA
:10F6A0006CC09A3108F491C09B3109F45BC09D3164
:10F6B00009F033C29D81903359F48F81882311F46E
:10F6C0009EE11CC0813011F091E018C098E916C08D
:10F6D000892F807591F0903539F4E0E0F0E089E011
:10F6E0008093570094910AC0983539F4E3E0F0E034
:10F6F00089E080935700949101C090E01A821B82A8
:10F700008D818C831D829E831F8227E030E009C299
:10F710001A8288E08B8381E48C8386E58D8382E581
:10F720008E8389E48F8383E5888780E589878FE5E9
:10F730008A8782E38B872BE030E0F3C18A818139AD
:10F7400041F0823941F0803911F48FE005C080E04A
:10F7500003C082E001C08AE01A828B8344C0772410
:10F76000739482C08D81882311F48EE12CC0813086
:10F7700011F081E028C088E926C01A82E1E0F0E0BB
:10F7800089E08093570084918B831C8224E030E0D1
:10F79000C8C18B81803589F48C81883039F4E2E0EE
:10F7A000F0E089E08093570084910DC0E0E0F0E044
:10F7B00089E080935700849106C0E3E0F0E089E09F
:10F7C0008093570084911A82DFCF8D81836C99E0FA
:10F7D000E1E0F0E0082E90935700E89507B600FCB2
:10F7E000FDCF1A821B8223E030E09BC180EC8A832C
:10F7F000CE5CDE4F188219821A821B82C253D1401E
:10F800008EC18A8190E0A0E0B0E0582F44273327D2
:10F8100022278B8190E0A0E0B0E0DC0199278827C7
:10F82000282B392B4A2B5B2B8D8190E0A0E0B0E098
:10F83000282B392B4A2B5B2B8C8190E0A0E0B0E089
:10F84000BA2FA92F982F8827282B392B4A2B5B2BCF
:10F85000220F331F441F551FC05EDE4F288339839C
:10F860004A835B83C052D1401A8259C13A81C95C34
:10F87000DE4F3883C753D140CA5CDE4F1882C6536F
:10F88000D1408B81C82EDD24CA5CDE4F488159816E
:10F89000C653D140C42AD52A933109F082C0CE5C28
:10F8A000DE4F88819981AA81BB81C253D1408050AB
:10F8B000904CA340B04030F583E0CE5CDE4FE88052
:10F8C000F9800A811B81C253D140F70100935B008C
:10F8D00080935700E89507B600FCFDCFCE5CDE4F65
:10F8E000088119812A813B81C253D14000501F4FAA
:10F8F0002F4F3F4FCE5CDE4F088319832A833B8313
:10F90000C253D140C05EDE4F488159816A817B81FC
:10F91000C052D140DE011B9631E08C9111962C91A2
:10F9200011971296C75CDE4F2883C953D140C85C3B
:10F93000DE4F1882C853D14090E0C85CDE4FE881AA
:10F94000F981C853D1408E2B9F2B0C01FA01609393
:10F950005B0030935700E89511244E5F5F4F6F4F67
:10F960007F4F0EEFE02E0FEFF02ECE0CDF1CC114F8
:10F97000D10499F685E0C05EDE4F088119812A81A5
:10F980003B81C052D140F80120935B008093570027
:10F99000E89507B600FCFDCF81E180935700E8951C
:10F9A00035C0C05EDE4F88819981AA81BB81C0527B
:10F9B000D140B695A795979587957C018601ABE0D8
:10F9C000AA2EB12CAC0EBD1E0BC0D5016D915D01F0
:10F9D000C7010F947FFE0894E11CF11C01501040F8
:10F9E0000115110591F7A60160E070E0440F551F65
:10F9F000661F771FC05EDE4FE880F9800A811B8199
:10FA0000C052D1404E0D5F1D601F711F1A82C05E33
:10FA1000DE4F488359836A837B83C052D1407FC0C5
:10FA2000FA80C55CDE4FF882CB53D140C65CDE4F16
:10FA30001882CA53D1408B81C82EDD24C65CDE4FAC
:10FA400008811981CA53D140C02AD12A1A828981DA
:10FA5000BE016D5F7F4F843121F59601C05EDE4FA0
:10FA6000E880F9800A811B81C052D1400BBFF701A9
:10FA700087919691DB018C9311969C936E5F7F4FDB
:10FA8000D801C7010296A11DB11DC05EDE4F88835B
:10FA90009983AA83BB83C052D14022503040F1F6F3
:10FAA00036C0C05EDE4F288139814A815B81C052F9
:10FAB000D1400894C108D108760100E010E0089414
:10FAC000C11CD11C0894E11CF11C011D111DE20E8A
:10FAD000F31E041F151F21BDBB27A52F942F832FB5
:10FAE00082BD2F5F3F4F4F4F5F4FF89A80B5DB01CC
:10FAF0008D93BD012E153F054007510761F7C05E8C
:10FB0000DE4F288339834A835B83C052D1409601FC
:10FB10002D5F3F4FFB01108204C080EC8A8322E0FE
:10FB200030E08BE18093C6008091C00086FFFCCF5F
:10FB30008091C00080648093C000C15DDE4FF88179
:10FB4000CF52D140F093C6008091C00086FFFCCF19
:10FB50008091C00080648093C000432F3093C60022
:10FB60008091C00086FFFCCF8091C00080648093AC
:10FB7000C000922F2093C6008091C00086FFFCCF6A
:10FB80008091C00080648093C0008EE08093C600A6
:10FB90008091C00086FFFCCF8091C000806480937C
:10FBA000C00065E1C15DDE4FE880CF52D1406E25D7
:10FBB00069276427FE01319610C090819093C6009A
:10FBC0008091C00086FFFCCF31968091C000806498
:10FBD0008093C0006927215030402115310569F715
:10FBE0006093C6008091C00086FFFCCF8091C0006A
:10FBF00080648093C00085B1805885B9772081F4F6
:10FC0000C15DDE4F0881CF52D1400F5FC15DDE4F35
:10FC10000883CF52D14090E0A0E0B0E00D941AF4F8
:10FC200027982F9880E090E020ED37E0F901319798
:10FC3000F1F7019684369105C9F700008091C00064
:10FC40008D7F8093C00081E180935700E895EE2777
:10FC5000FF270994FFCF90E00D941AF497FB092E2B
:10FC600007260AD077FD04D02ED006D000201AF443
:10FC7000709561957F4F0895F6F7909581959F4F08
:10FC80000895A1E21A2EAA1BBB1BFD010DC0AA1FDD
:10FC9000BB1FEE1FFF1FA217B307E407F50720F0F5
:10FCA000A21BB30BE40BF50B661F771F881F991F70
:10FCB0001A9469F760957095809590959B01AC01B9
:10FCC000BD01CF010895AA1BBB1B51E107C0AA1FAC
:10FCD000BB1FA617B70710F0A61BB70B881F991FED
:10FCE0005A95A9F780959095BC01CD010895F99991
:10FCF000FECF92BD81BDF89A992780B50895262F31
:10FD0000F999FECF1FBA92BD81BD20BD0FB6F89400
:0EFD1000FA9AF99A0FBE01960895F894FFCF63
:00000001FF
