:100000000C9414030C943E030C943E030C943E0396
:100010000C943E030C94B6260C9431270C943E03AA
:100020000C943E030C943E030C943E030C943E034C
:100030000C943E030C943E030C943E030C943E033C
:100040000C943E030C943E030C94FA330C943E0340
:100050000C94E3360C9419370C943E030C943E0335
:100060000C943E030C943E030C9486320C943E0395
:100070000C943E030C943E030C943E030C943E03FC
:100080000C943E030C943E030C943E0300010307C2
:100090000F1F3F7F0080C0E0F0F8FCFE0000000072
:1000A000003E5B4F5B3E3E6B4F6B3E1C3E7C3E1CFE
:1000B000183C7E3C181C577D571C1C5E7F5E1C0044
:1000C000183C1800FFE7C3E7FF0018241800FFE7FB
:1000D000DBE7FF30483A060E2629792926407F05BE
:1000E0000507407F05253F5A3CE73C5A7F3E1C1CD4
:1000F00008081C1C3E7F14227F22145F5F005F5F94
:1001000006097F017F006689956A6060606060947F
:10011000A2FFA29408047E040810207E2010080884
:100120002A1C08081C2A08081E101010100C1E0C8F
:100130001E0C30383E3830060E3E0E060000000021
:100140000000005F00000007000700147F147F1408
:10015000242A7F2A1223130864623649562050004D
:1001600008070300001C2241000041221C002A1C39
:100170007F1C2A08083E0808008070300008080824
:100180000808000060600020100804023E51494544
:100190003E00427F400072494949462141494D3362
:1001A0001814127F1027454545393C4A49493141C9
:1001B000211109073649494936464949291E000097
:1001C00014000000403400000008142241141414EC
:1001D0001414004122140802015909063E415D59D8
:1001E0004E7C1211127C7F494949363E41414122E1
:1001F0007F4141413E7F494949417F090909013E0B
:10020000414151737F0808087F00417F4100204031
:10021000413F017F081422417F404040407F021C43
:10022000027F7F0408107F3E4141413E7F0909095A
:10023000063E4151215E7F09192946264949493226
:1002400003017F01033F4040403F1F2040201F3FEC
:100250004038403F63140814630304780403615971
:10026000494D43007F4141410204081020004141B3
:10027000417F04020102044040404040000307085F
:100280000020545478407F2844443838444444285B
:10029000384444287F385454541800087E09021802
:1002A000A4A49C787F0804047800447D400020408A
:1002B000403D007F1028440000417F40007C0478CE
:1002C00004787C080404783844444438FC18242416
:1002D0001818242418FC7C08040408485454542496
:1002E00004043F44243C4040207C1C2040201C3C13
:1002F0004030403C44281028444C9090907C44640A
:10030000544C44000836410000007700000041369C
:10031000080002010204023C2623263C1EA1A16122
:10032000123A4040207A3854545559215555794154
:100330002254547842215554784020545579400C29
:100340001E5272123955555559395454545939550C
:100350005454580000457C410002457D420001454F
:100360007C407D1211127DF0282528F07C545545E3
:10037000002054547C547C0A097F4932494949324F
:100380003A4444443A324A4848303A4141217A3A60
:1003900042402078009DA0A07D3D4242423D3D402C
:1003A00040403D3C24FF2424487E4943662B2FFCDB
:1003B0002F2BFF0929F620C0887E09032054547989
:1003C000410000447D413048484A32384040227A5A
:1003D000007A0A0A727D0D19317D2629292F2826D7
:1003E0002929292630484D402038080808080808DF
:1003F0000808382F10C8ACBA2F102834FA00007B38
:10040000000008142A142222142A1408550055004A
:1004100055AA55AA55AAFF55FF55FF000000FF0039
:10042000101010FF00141414FF001010FF00FF1034
:1004300010F010F0141414FC001414F700FF000066
:10044000FF00FF1414F404FC141417101F10101FE5
:10045000101F1414141F00101010F0000000001FD3
:10046000101010101F10101010F010000000FF10DE
:100470001010101010101010FF10000000FF1400DA
:1004800000FF00FF00001F10170000FC04F414140C
:100490001710171414F404F40000FF00F7141414D8
:1004A00014141414F700F7141414171410101F1058
:1004B0001F141414F4141010F010F000001F101F7B
:1004C0000000001F14000000FC140000F010F010E9
:1004D00010FF10FF141414FF141010101F00000060
:1004E00000F010FFFFFFFFFFF0F0F0F0F0FFFFFF64
:1004F0000000000000FFFF0F0F0F0F0F38444438BB
:1005000044FC4A4A4A347E02020606027E027E0209
:1005100063554941633844443C04407E201E200614
:10052000027E020299A5E7A5991C2A492A1C4C7251
:1005300001724C304A4D4D303048784830BC625AD8
:10054000463D3E494949007E0101017E2A2A2A2A68
:100550002A44445F444440514A444040444A514044
:100560000000FF0103E080FF000008086B6B083605
:1005700012362436060F090F060000181800000076
:100580001010003040FF0101001F01011E00191D65
:100590001712003C3C3C3C00000000000000000240
:1005A00003000A0B00000000050409080000000019
:1005B000000000000000000000000000010204082C
:1005C000102040800102040810204080010204082D
:1005D0001020408001020408102040800202020224
:1005E00002020202040404040404040403030303D7
:1005F00003030303010101010101010100002000C7
:1006000023002600290000002200250028002B00DE
:1006100000002100240027002A00CF07BA0AAC31CD
:10062000BA334D37E907E70A11241FBECFEFD0E4F4
:10063000DEBFCDBF17E0A0E0B1E0E8E6F9E700E0FB
:100640000BBF02C007900D92AC38B107D9F72BE071
:10065000ACE8B7E001C01D92A337B207E1F713E0A1
:10066000C2E1D3E004C02197FE010E94433ACD309D
:10067000D107C9F70E94F2390C94A73C0C940000F2
:100680000F931F930E94443400918C0710918D07A3
:1006900020918E0730918F076017710782079307AB
:1006A000C4F06056704F8F4F9F4F60938C077093CC
:1006B0008D0780938E0790938F0788E997E00E94BB
:1006C000A31564E571E082ED9AE01F910F910C94FF
:1006D000E9371F910F9108950F931F9362E671E020
:1006E00082ED9AE00E94E9370E944434009190071D
:1006F000109191072091920730919307601771072D
:10070000820793074CF168517C4F8F4F9F4F609346
:10071000900770939107809392079093930788E9CD
:1007200097E00E9443158823B9F088E997E00E947A
:100730003515882389F06EE771E082ED9AE00E941A
:10074000E93761E08AEA98E00E94910888E997E039
:100750001F910F910C94A5191F910F910895CF939C
:10076000DF930E948D2680E493E0909313018093A1
:100770001201E1EFF9E081818260818341E062E072
:1007800081E00E9449260E9408278CE693E090931E
:10079000210180932001EDEEF9E082818460828363
:1007A00042E064E082E00E94492661E087E00E9426
:1007B00018356AE070E080E090E00E94753488E5CA
:1007C00098E00E946C0988E598E00E94E208C8E978
:1007D000D7E09D838C8326E040E855E260E070E03E
:1007E00082ED9AE00E948B366BE877E082ED9AE02A
:1007F0000E94E9376BE877E082ED9AE00E94E937E2
:100800006FE871E082ED9AE00E94E93766E971E0F5
:1008100082ED9AE00E94C4376C817D814AE050E00D
:1008200082ED9AE0DF91CF910C949B38EF92FF928A
:100830000F931F93CF93DF93CDB7DEB72C970FB6EF
:10084000F894DEBF0FBECDBF8C017B014AE0CE0124
:1008500007960E943B396EEA71E0CE0101960E9434
:100860001C39BE01695F7F4FCE0101960E94C239DB
:1008700061EB74E00E94D539BC01C8010E947E3949
:10088000CE0101960E94AD38CE0107960E94AD3888
:10089000E2FE05C066EB71E0C8010E94B339E3FED9
:1008A00005C061EC71E0C8010E94B339E1FE05C0EA
:1008B00068EC71E0C8010E94B339E6FE05C06DEC3A
:1008C00071E0C8010E94B339E7FE05C069ED71E02F
:1008D000C8010E94B339F0FE05C063EE71E0C801A3
:1008E0000E94B339E5FE05C06DEE71E0C8010E94BB
:1008F000B339E0FE05C068EF71E0C8010E94B3396A
:10090000E4FE05C064E072E0C8010E94B339C8018A
:100910002C960FB6F894DEBF0FBECDBFDF91CF91FE
:100920001F910F91FF90EF900895CF93DF93EC010B
:100930006038710509F456C02CF56830710509F46A
:1009400048C09CF462307105F1F164307105F1F139
:100950006130710509F058C060E172E0CE010E947B
:100960001C39CE01DF91CF91089560327105A1F15C
:1009700060347105A1F16031710509F045C069E489
:1009800072E0ECCF611588E07807A9F174F4611585
:1009900082E0780751F1611584E0780749F161152B
:1009A000714091F56DE772E0D9CF611580E278076B
:1009B00029F1611580E4780721F16115704121F575
:1009C0006BEA72E0CBCF62E272E0C8CF60E372E024
:1009D000C5CF6FE372E0C2CF65E572E0BFCF62E6DC
:1009E00072E0BCCF62E772E0B9CF66E872E0B6CFE2
:1009F00060E972E0B3CF6EE972E0B0CF68EB72E00D
:100A0000ADCF65EC72E0AACF63ED72E0A7CF0F9394
:100A10001F93CF93DF9300D000D000D0CDB7DEB7C7
:100A200088EB98E00E94D21388EB98E00E9488132C
:100A3000181619066CF48230910509F4C3C00CF045
:100A400076C0019709F487C01092B9081092B808CF
:100A50008091B8089091B9088038910509F488C14F
:100A60000CF00FC18830910509F471C10CF0F7C08A
:100A70008230910509F4B3C18430910509F4F9C0BD
:100A8000019709F4BFC188E997E00E94761988238D
:100A900089F08091B8089091B9088032910509F4E5
:100AA000E1C10CF0BCC18430910509F426C2409725
:100AB00009F4FBC180919A078823B9F080919B07C4
:100AC000811113C08091B8089091B90880329105C6
:100AD00061F0409751F060EE72E082ED9AE00E9482
:100AE000E93788E997E00E941B1C1092B908109220
:100AF000B80888E997E00E949C228AEA98E00E9460
:100B0000390888E997E00E949C228091960790918D
:100B100097070196823091050CF0FEC190939707DC
:100B20008093960788E598E00E94B90A3BC083301D
:100B3000910509F468C0049709F086CF88E598E02C
:100B40000E947D098CEC98E00E945A0B88EB98E09B
:100B50000E94841379CF88E997E00E94FE1E80915D
:100B6000B8089091B9089F7E892B39F18CEC98E0F8
:100B70000E940D0E8CEC98E00E940D0E8CEC98E01B
:100B80000E940D0E64EF71E080E090E00E947534E9
:100B900088E997E00E949C2264E670E080E090E0A3
:100BA0000E94753426960FB6F894DEBF0FBECDBFF7
:100BB000DF91CF911F910F9108958CEC98E00E94E6
:100BC000EB0DE6CF66E970E080E090E00E947534BE
:100BD00062E070E08CEC98E00E940D0B8CEC98E0E9
:100BE0000E94161088EB98E00E9407158C0188EB94
:100BF00098E00E94F4149801AC0161E088E598E067
:100C00000E94250921CF66E970E080E090E00E9413
:100C1000753430E020E050E040E060E088E598E0A6
:100C20000E94250988EB98E00E940715AC0161E05D
:100C300088E598E00E94E60888E598E00E94E208CE
:100C400090939D0780939C0763E070E08CEC98E0A4
:100C50000E940D0B8CEC98E00E941610F5CE8032AD
:100C6000910539F08034910509F4A2C0409709F04C
:100C70000ACF88E997E00E943E15882309F403CF44
:100C80008BC0811528E09207A1F3FCF4811522E0C6
:100C9000920779F3811524E0920759F38115914069
:100CA00009F0F1CE80919807811176C08091990763
:100CB000811172C088E997E00E94351581116CC0DE
:100CC00088E997E00E94DD1DDECE811520E29207C3
:100CD00091F1811520E49207D1F08115904109F03E
:100CE000D2CE8AEA98E00E94200888E997E00E9424
:100CF0005515811107C088E997E00E9443158823A4
:100D000009F4C1CE88E997E00E941B1CBCCE88E99B
:100D100097E00E944315682F8AEA98E00E949108A4
:100D200088E997E00E944315882351F088E997E00D
:100D30000E948E19A8CE8AEA98E00E94BB08F0CFE4
:100D400088E997E00E9455158111F0CF9CCE8091E3
:100D50009807811198CE88E997E00E945515811176
:100D600092CE88E997E00E94431581118CCECACFBC
:100D700088E997E00E945515811185CE88E997E0B2
:100D80000E94431581117FCE80919807811104C084
:100D900080919907882339F070E060E08CEC98E04E
:100DA0000E94520B70CE88E997E00E94281A6BCE01
:100DB00080919907882329F088E997E00E94D5154A
:100DC00062CE80919807882329F088E997E00E94F5
:100DD000412159CE88E997E00E944B1E54CE809164
:100DE00098078111D9CF809199078111D5CF88E9D2
:100DF00097E00E9435158111CFCF88E997E00E94D6
:100E0000A61841CE809198078111C6CF809199078D
:100E10008111C2CF88E997E00E94651834CE811510
:100E200024E09207A1F0811528E0920709F45AC046
:100E30008115924009F03ECE88E997E00E942F1577
:100E400097FF0BC088E997E00E94152033CE88E910
:100E500097E00E942F1597FFF5CF88E997E00E9451
:100E6000AD2028CE88E997E00E949D15019709F4EE
:100E700099CE80919907811111C088E997E00E946D
:100E8000351581110BC088E997E00E942F1597FF57
:100E900024C088E997E00E940C1F0CCE70E060E04F
:100EA0008CEC98E00E94520B05CE88E997E00E94F6
:100EB0009D15029709F476CE809199078111EECFA6
:100EC00088E997E00E9435158111E8CF88E997E01D
:100ED0000E942F1518161906E4F288E997E00E947F
:100EE000E21AE8CD88E997E00E9435158111D6CF46
:100EF00088E997E00E948B21DDCD809199078111CF
:100F0000CDCF88E997E00E9435158111C7CF88E9D8
:100F100097E00E94F421CECD109297071092960789
:100F20006091B8087091B9086115710579F0CE012A
:100F300001960E949504BE016F5F7F4F82ED9AE09B
:100F40000E94D737CE0101960E94AD3888E997E01C
:100F50000E94B31988E997E00E943A158C018091AC
:100F600094079091950780179107A1F0B801CE01E1
:100F700001960E941604BE016F5F7F4F82ED9AE0DA
:100F80000E94D737CE0101960E94AD381093950785
:100F9000009394078CEC98E00E941610C3CD8CEC63
:100FA00098E00E942F0E88EB98E00E941D138AEAB9
:100FB00098E00E94ED0788E598E00E94A60928E5E0
:100FC00038E048EB58E06CEC78E088E997E00C9466
:100FD000F6158CE998E00C94AD38FC01128213826E
:100FE0001482158280E590E09783868310861186AF
:100FF000128613861486158661E084E00E941835F7
:1010000061E087E10E94183561E083E00E941835B5
:1010100060E082E00E94183561E084E00E9454356F
:1010200061E087E10E94543561E083E00E9454351D
:1010300061E082E00E94183561E082E00C94543552
:10104000CF93DF93EC016DEE72E082ED9AE00E94A7
:10105000E93781E08C871D8660E083E00E9454358B
:101060000E9444346A837B838C839D83DF91CF917C
:101070000895CF92DF92EF92FF92CF93DF93EC012E
:101080000E9444346B017C0188859985AA85BB85C3
:10109000181619061A061B0694F48C159D05AE0544
:1010A000BF056CF468EF72E082ED9AE00E94E937C8
:1010B000188619861A861B86CE010E9420088A810E
:1010C0009B81AC81BD81B701A601481B590B6A0BFE
:1010D0007B0B8E819F81092E000CAA0BBB0B841702
:1010E0009507A607B707B4F4CA82DB82EC82FD82BB
:1010F00061E083E00E94543561E084E00E94543551
:1011000061E087E1DF91CF91FF90EF90DF90CF908A
:101110000C945435DF91CF91FF90EF90DF90CF90FA
:1011200008951F93CF93DF93EC01162F61E173E0D5
:1011300082ED9AE00E94E93781E08D8760E084E0EB
:101140000E945435112399F00E9444346056704F28
:101150008F4F9F4F688779878A879B876DE173E000
:1011600082ED9AE0DF91CF911F910C94E937DF91E6
:10117000CF911F910895CF93DF93EC0167E373E064
:1011800082ED9AE00E94E9371C861D8660E087E1C7
:101190000E9454350E9444346A837B838C839D83F0
:1011A000DF91CF91089561E573E082ED9AE00C94B0
:1011B000E93763E673E082ED9AE00E94E93790E058
:1011C00080E00895FC018081918108950F931F9321
:1011D000CF93DF931F92CDB7DEB7FC01611108C03A
:1011E000138212820F90DF91CF911F910F9108957A
:1011F00086E090E0938382834115510599F38081C5
:101200009181480F591F4436510510F45183408392
:101210008F0166E971E082ED9AE00E94C437F8011F
:10122000608171814AE050E082ED9AE00E949B3833
:10123000F8018081898321E0AE014F5F5F4F60E15B
:1012400084EA99E00E94E833CDCF0F931F93CF93A8
:10125000DF931F92CDB7DEB7FC01611108C0138286
:1012600012820F90DF91CF911F910F91089582E02C
:1012700090E0938382834115510519F421153105BE
:1012800081F39481BA01690F711D6436710510F400
:10129000940F94838581A901480F511D443651054F
:1012A00010F4820F85838F018481898321E0AE0150
:1012B0004F5F5F4F6DE084EA99E00E94E833F801E8
:1012C0008581898321E0AE014F5F5F4F6EE084EA44
:1012D00099E00E94E833C5CF0895CF93DF93EC01E6
:1012E00067E773E082ED9AE00E94E93781E090E0E1
:1012F00099AF88AFDF91CF910895CF93DF93EC0141
:1013000065E873E082ED9AE00E94E9371B821A8259
:10131000FE01E05CFF4F10821182128213827096F0
:101320001182108281E08FAB4A8D5B8DC65BDF4FEF
:1013300090E080E02FEF3FEF8417950724F4299386
:1013400039930196F9CFDF91CF910895CF93DF9331
:10135000EC01198218821B821A828CE08C8387E24E
:101360008D8380EC94EDA1E0B0E08E839F83A8870D
:10137000B98780E090ECA8E2B5E48A879B87AC87C8
:10138000BD8780E090E0A8E0B1E48E879F87A88BBE
:10139000B98B8FE79EEEA6E3B0E08A8B9B8BAC8B7C
:1013A000BD8B84EF91E0A0E0B0E08E8B9F8BA88F87
:1013B000B98F83E090E09B8F8A8F81E090E09D8FD2
:1013C0008C8F1E8E1F8E18A219A21AA21BA21CA2FD
:1013D0001DA21EA21FA218A619A61AA61BA61CA60D
:1013E0001DA61EA61FA618AA1AAA19AA9CAB8BABEB
:1013F0001FAA19AE18AE82E090E09BAF8AAF1CAE78
:101400001DAE1EAE1FAE6BE877E0CE018C5B9F4F2A
:101410000E941C39FE01E05BFF4F11821082CE0159
:10142000DF91CF910C947D09CF93DF93EC0164E9B8
:1014300073E082ED9AE00E94E93719AE18AE62E4DB
:1014400073E082ED9AE00E94E93781E08FABDF9193
:10145000CF9108950F931F93CF93DF93EC018B01EE
:101460007AAB69AB82E090E099AF88AF81E08FAB57
:1014700062EA73E082ED9AE00E94C4374AE050E0ED
:10148000B80182ED9AE00E9494386DEA73E082ED33
:101490009AE00E94C43769A97AA94AE050E082ED37
:1014A0009AE00E9494386EEB73E082ED9AE0DF914F
:1014B000CF911F910F910C94E937FC0185A996A952
:1014C00008959B01215031092430310550F46C5DA1
:1014D0007F4F660F771F680F791FFB018081918115
:1014E00008958FEF9FEF0895FC0181A992A925A986
:1014F00036A961157105C1F497FF06C081E022305D
:10150000310534F080E004C081E02F3F3F4FD4F339
:1015100090A910AA992399F061ED73E082ED9AE009
:101520000E94E93781E0089597FF05C062177307AD
:101530009CF780E008952617370774F7FACF8111DA
:10154000EBCF0895FC0183A994A98617970721F092
:1015500074AB63AB81E087AB0895CF93DF93EC016D
:101560000E9444346CAF7DAF8EAF9FAFDF91CF91BF
:10157000089508958F929F92AF92BF92CF92DF927B
:10158000EF92FF920F9380EA882E86E8982EAA2485
:10159000A394B12C90E8C92E9AE1D92E96E0E92EB9
:1015A000F12C0FEF2CEF39E040E460E88DEA99E090
:1015B0000E94682884EA99E00F91FF90EF90DF90F5
:1015C000CF90BF90AF909F908F900C94B4338DEAE2
:1015D00099E00C94B328FC01678B0895FC01668B9D
:1015E000089560E086E10E94543561E086E10C9444
:1015F0005435FC0177FD0BC0108EAB01770F660BE5
:10160000770B4683578360877187178E089571958E
:101610006195710981E0808FF0CFAB01770F660B88
:10162000770BFC014683578360877187178E089577
:101630000F931F93FC0181E08587578746872AE037
:1016400030E0318B208B8B01072E000C220B330BEB
:1016500006831783208731876E3F9FEF7907B9F0A4
:101660002CF46D3F7F4FB9F0178E0AC06F3F76079D
:1016700051F0672BC9F793E4958F90E3968F878F8E
:101680001F910F91089590E5958F91E3F7CF90E525
:10169000958F92E3F3CF90E5958F93E3EFCFFC0125
:1016A00085850895FC01728F618F24E030E0338BD3
:1016B000228B0895CF93DF93FC0115861386DC01FE
:1016C000AC56BF4FEC01C456DF4F8D919D910D90EC
:1016D000BC91A02D488159816A817B81840F951F1F
:1016E000A61FB71F6C96488159816A817B81840F40
:1016F000951FA61FB71F82839383A483B583168289
:10170000178210861186108E168A178EDF91CF9160
:101710000895CF93DF93FC011386EC01CE5ADF4F7F
:10172000DC01A455BF4F488159816A817B818D912D
:101730009D910D90BC91A02D481B590B6A0B7B0B02
:10174000DF01AC54BF4F8D919D910D90BC91A02DA8
:10175000481B590B6A0B7B0B82819381A481B58155
:1017600084239523A623B723C25ADF4F488159818A
:101770006A817B81842B952BA62BB72B8283938345
:10178000A483B583168ADF91CF910895CF93DF9319
:10179000FC0115861386DC01AE5ABF4FEC01C05523
:1017A000DF4F8D919D910D90BC91A02D4881598165
:1017B0006A817B81841B950BA60BB70B249748810C
:1017C00059816A817B81841B950BA60BB70B2896E8
:1017D000488159816A817B81841B950BA60BB70BCD
:1017E000A096488159816A817B81841B950BA60B49
:1017F000B70B428153816481758184239523A6238D
:10180000B72382839383A483B583168217821086BD
:101810001186108E168A178EDF91CF910895CF937F
:10182000DF93FC0121E02387DC01AE5ABF4FEC01BE
:10183000C455DF4F8D919D910D90BC91A02D488195
:1018400059816A817B81841B950BA60BB70B289667
:10185000488159816A817B81841B950BA60BB70B4C
:10186000428153816481758184239523A623B72304
:1018700082839383A483B583268BDF91CF910895D0
:101880000F931F93DC01AE5ABF4FFC01E455FF4F8D
:101890004D915D916D917C91008111812281338107
:1018A000401B510B620B730BFC01028113812481DD
:1018B00035814023512362237323EC54FF4F008171
:1018C000118122813381402B512B622B732BFC0120
:1018D00042835383648375831F910F9108950F93FF
:1018E0001F93DC01AE5ABF4FFC01EC54FF4F4D91EA
:1018F0005D916D917C910081118122813381401B2A
:10190000510B620B730BFC01028113812481358121
:101910004023512362237323E455FF4F008111813B
:1019200022813381402B512B622B732BFC0142838C
:101930005383648375831F910F9108950F931F93B1
:10194000DC01AE5ABF4FFC01E854FF4F4D915D9151
:101950006D917C910081118122813381401B510B5B
:10196000620B730BFC0102811381248135814023BA
:10197000512362237323E855FF4F00811181228197
:101980003381402B512B622B732BFC0142835383F9
:10199000648375831F910F9108950F931F93DC014A
:1019A000AE5ABF4FFC01E855FF4F4D915D916D91CF
:1019B0007C910081118122813381401B510B620B8C
:1019C000730BFC0102811381248135814023512353
:1019D00062237323E854FF4F0081118122813381F8
:1019E000402B512B622B732BFC0142835383648366
:1019F00075831F910F9108954F925F926F927F921E
:101A00008F929F92AF92BF92CF92DF92EF92FF920E
:101A1000CF93DF93FC019B01DC01A454BF4FCD9019
:101A2000DD90ED90FC90139714968D919D910D9003
:101A3000BC91A02DEF01CC53DF4F88809980AA8004
:101A4000BB80C257D109488159816A817B814C1979
:101A50005D096E097F09481B590B6A0B7B0B4819FE
:101A600059096A097B09428053806480758044214A
:101A700055216621772122303105F1F023303105DF
:101A800021F12130310599F04283538364837583BA
:101A9000DF91CF91FF90EF90DF90CF90BF90AF900C
:101AA0009F908F907F906F905F904F9008954829FE
:101AB00059296A297B29E8CFC80CD91CEA1CFB1CD0
:101AC0004C295D296E297F29DFCF880D991DAA1D1C
:101AD000BB1D842B952BA62BB72B82839383A483CA
:101AE000B583D6CF6F927F928F929F92AF92BF9223
:101AF000CF92DF92EF92FF920F931F93CF93DF93DA
:101B0000FC013B01DC01A856BF4F8D919D910D90CA
:101B1000BC91A02D9F0120563F4FE90188809980FC
:101B2000AA80BB802C5F3F4FE901C880D980EA8042
:101B3000FB8022553109E901488159816A817B8105
:101B4000481B590B6A0B7B0B481959096A097B0919
:101B50008A019B010C191D092E093F0942815381FD
:101B6000648175814023512362237323D2E06D1673
:101B70007104F9F023E06216710401F16A94672898
:101B800099F04283538364837583DF91CF911F91D2
:101B90000F91FF90EF90DF90CF90BF90AF909F900C
:101BA0008F907F906F9008954C295D296E297F2931
:101BB000E8CF482959296A297B29E3CF880D991D47
:101BC000AA1DBB1D842B952BA62BB72B8283938339
:101BD000A483B583DACF0F931F93CF93DF938C0148
:101BE00061E085E10E945435C8010E94F10A61E07C
:101BF00085E10E945435C1E0D0E0F80180819181F7
:101C00008C179D072CF0C8010E94F10A2196F5CF90
:101C1000DF91CF911F910F9108950F931F93CF9351
:101C2000DF938C0161E085E10E945435C8010E9478
:101C3000F10A60E085E10E945435C1E0D0E0F8018E
:101C4000808191818C179D072CF0C8010E94F10AB8
:101C50002196F5CFDF91CF911F910F910895CF93EA
:101C6000DF93EC0184E290E0998388831A821B82DF
:101C70001C821D821E821F82188619861A861B8668
:101C80001C861D861F861E86198A188A1B8A1A8A38
:101C90001D8A1C8A1E8A1F8A188E1A8E198E1C8E07
:101CA0001B8E1F8E83E090E099A388A386E1E6E275
:101CB000F1E0DE01929601900D928A95E1F7809114
:101CC0003C0190913D01A0913E01B0913F0188AF50
:101CD00099AFAAAFBBAF89EF90E09DAF8CAF84E125
:101CE000E0E4F1E0DE01DE9601900D928A95E1F7E5
:101CF000FE01EE5AFF4F8FEF9FEFDC01808391834F
:101D0000A283B383349680E490E0918380833296FB
:101D100081E090E0A0E0B0E080839183A283B38370
:101D2000349682E090E0A0E0B0E080839183A283CB
:101D3000B383349684E090E0A0E0B0E080839183A8
:101D4000A283B383349688E090E0A0E0B0E0808383
:101D50009183A283B383349680E190E0A0E0B0E069
:101D600080839183A283B383349680E290E0A0E0E5
:101D7000B0E080839183A283B383349680E490E0C3
:101D8000A0E0B0E080839183A283B383349680E89F
:101D900090E0A0E0B0E080839183A283B383349687
:101DA00080E091E0A0E0B0E080839183A283B383E0
:101DB000349680E092E0A0E0B0E080839183A2833B
:101DC000B383349680E094E0A0E0B0E08083918318
:101DD000A283B383349680E098E0A0E0B0E08083F3
:101DE0009183A283B383349680E090E1A0E0B0E0D9
:101DF00080839183A283B383349680E090E2A0E055
:101E0000B0E080839183A283B383349680E090E432
:101E1000A0E0B0E080839183A283B383349680E016
:101E200090E8A0E0B0E080839183A283B3833496EE
:101E300080E090E0A1E0B0E080839183A283B3834F
:101E4000349680E090E0A2E0B0E080839183A283AA
:101E5000B383349680E090E0A4E0B0E08083918387
:101E6000A283B383349680E090E0A8E0B0E0808362
:101E70009183A283B383349680E090E0A0E1B0E048
:101E800080839183A283B383349680E090E0A0E2C4
:101E9000B0E080839183A283B383349680E090E0A6
:101EA000A0E4B0E080839183A283B383349680E082
:101EB00090E0A0E8B0E080839183A283B38334965E
:101EC00080E090E0A0E0B1E080839183A283B383BF
:101ED000349680E090E0A0E0B2E080839183A2831A
:101EE000B383349680E090E0A0E0B4E080839183F7
:101EF000A283B383349680E090E0A0E0B8E08083D2
:101F00009183A283B383349680E090E0A0E0B0E7B1
:101F100080839183A283B383349680E090E0A0E035
:101F2000B0E880839183A283B383349680E090E00D
:101F3000A0E0B0E980839183A283B383349680E0EC
:101F400090E0A0E0B0EF80839183A283B38361E04F
:101F500086E10E94183561E085E10E941835CE01C6
:101F60000E940D0ECE010E945A0B81E090E09C8FE2
:101F70008B8FDF91CF910895DC01E0EDE60FE13228
:101F800008F051C00E2E000CFF0BE753F04F0C94DD
:101F9000433AEA0FEE0FF30FF60FF90FFC0FFF0FA6
:101FA0000210051008101310131013101310131043
:101FB00013101310131013100B1013101310131011
:101FC00013101310131013101310131013101310F9
:101FD00013100F10DE968D919C910895A05CBF4F59
:101FE0008D919C910895AE5BBF4FFACFAC5BBF4F14
:101FF000F7CFAA5BBF4FF4CFA85BBF4FF1CFA65B73
:10200000BF4FEECFA45BBF4FEBCFA25BBF4FE8CF7C
:10201000A05BBF4FE5CFD8968D919C910895DA963D
:102020008D919C91089590E080E008952F923F92C9
:102030004F925F926F927F928F929F92AF92BF92D8
:10204000CF92DF92EF92FF920F931F93CF93DF9384
:1020500000D000D0CDB7DEB79C838B83FC01848990
:1020600095890197958B848B312C212C97FF0BC080
:1020700080A191A1958B848B828591E089278287AD
:1020800022242394312C0B811C810E5A1F4FF801FE
:10209000C080D180E280F380EB81FC81838588233E
:1020A000C1F082819381A481B581E055FF4F4081C9
:1020B000518162817381EB81FC812285222309F4A5
:1020C000D7C1842B952BA62BB72B82839383A48314
:1020D000B583EB81FC8185858823B1F1EC52FF4FFC
:1020E00080819181A281B381B701A601481B590B60
:1020F0006A0B7B0BEB81FC8182819381A481B5818A
:1021000084239523A623B72382839383A483B58353
:1021100022852223C9F020893189223031050CF42F
:10212000CEC121503109318B208B26853785213056
:10213000310509F4ACC12230310509F4BBC1E453C7
:10214000FF4F232B09F4A7C1EB81FC814280538010
:1021500064807580EC58FF4FFA83E9838081918118
:10216000A281B38146015701881A990AAA0ABB0ABB
:10217000D501C40184219521A621B721EB81FC81E1
:1021800082839383A483B583238D348D1216130623
:102190000CF09CC1E25BFF4F40815181942F882756
:1021A000092E000CAA0BBB0B46015701881A990A8D
:1021B000AA0ABB0A052E000C660B770B841A950A37
:1021C000A60AB70A482059206A207B20C901019736
:1021D0000B9794F4F9017096EE0FFF1F8B809C8093
:1021E000E80DF91D80E09081092E000CAA0BBB0BB5
:1021F000480E591E6A1E7B1E2B30310594F4F901DE
:102200007196EE0FFF1FAB80BC80EA0DFB1D808135
:102210009181092E000CAA0BBB0B480E591E6A1E99
:102220007B1E2F5F3F4FEB81FC812C3031050CF082
:102230004AC1348F238F66E970E080E090E00E940D
:102240007534EB81FC8182899389181619060CF08C
:102250005CC0232819F00197938B828BEB81FC8162
:1022600082858823A1F082819381A481B581E9814F
:10227000FA814081518162817381842B952BA62B39
:10228000B72BEB81FC8182839383A483B583EB819D
:10229000FC81218D328D12161306BCF5E25BFF4FD7
:1022A00040815181942F8827092E000CAA0BBB0B6B
:1022B000F80180809180A280B380881A990AAA0AC6
:1022C000BB0A052E000C660B770B841A950AA60A2A
:1022D000B70A482059206A207B20812CEB81FC81A1
:1022E00094ACF9017F96EE0FFF1FAB80BC80EA0D26
:1022F000FB1D80819181880E991E092C000CAA0873
:10230000BB08480C591C6A1C7B1CEB81FC81878D27
:102310008823C1F1E25BFF4F20813181922F882712
:10232000092E000CAA0BBB0BF80180809180A280C3
:10233000B380881A990AAA0ABB0AC901330FAA0BEB
:10234000BB0B881A990AAA0ABB0A482059206A209E
:102350007B20EB81FC81668DCF010E94BC0F4C017C
:10236000EB81FC81658DCF010E94BC0FC12CD82E62
:102370008C0C9D1C092C000CAA08BB08480C591C8D
:102380006A1C7B1CEB81FC8187898823C1F0EC539C
:10239000FF4F4081518162817381EB81FC81828595
:1023A00081112AC1F80180819181A281B381841BAE
:1023B000950BA60BB70B482259226A227B22EB8190
:1023C000FC8186898823C1F0E055FF4F408151810F
:1023D00062817381EB81FC818285811112C1F801D8
:1023E00080819181A281B381841B950BA60BB70BD1
:1023F000482259226A227B22EB81FC81EC56FF4F56
:1024000080809180A280B380482859286A287B2840
:1024100061E085E10E9454358B819C810E94F10A24
:1024200001E010E0C12CD12C7601C394EB81FC813A
:1024300080819181801791070CF4E8C0D701C60113
:1024400084219521A621B72161E0892B8A2B8B2B32
:1024500009F460E085E10E945435CC0CDD1CEE1CD3
:10246000FF1C8B819C810E94F10A0F5F1F4FDECF02
:1024700046015701841A950AA60AB70AB501A401B4
:1024800088219523AA21B723EB81FC811ECEEB8105
:10249000FC81E853FF4F4081518162817381842B1D
:1024A000952BA62BB72BEB81FC8182839383A4838E
:1024B000B5834ACEEB81FC81E053FF4FECCFEB813B
:1024C000FC81158641CE148E138EB5CEEB81FC8136
:1024D00086809780A084B184B7FE2DC0E25BFF4F59
:1024E00020813181922F8827092E000CAA0BBB0B6B
:1024F000C81AD90AEA0AFB0AC901330FAA0BBB0B97
:10250000C81AD90AEA0AFB0A4C205D206E207F20F7
:10251000EB81FC81EA5AFF4F80819181982E8824BB
:10252000880E991E092C000CAA08BB08480C591CDF
:102530006A1C7B1C86CEC501B4012AE030E040E075
:1025400050E00E94243A6AE0629FC001639F900DB0
:102550001124B401681B790BFB017F96EE0FFF1F5E
:102560008B809C80E80DF91D80809180092C000CE7
:10257000AA08BB082115310551F5161617063CF5BA
:1025800080E0EB81FC81E25BFF4F9081092E000C23
:10259000AA0BBB0BC81AD90AEA0AFB0A4C205D2019
:1025A0006E207F20480C591C6A1C7B1CEB81FC812F
:1025B000808D882309F445CEE057FF4F80819181BB
:1025C000A281B381480E591E6A1E7B1E3ACE215E3F
:1025D0003F4F220F331FEB81FC81E20FF31F80E09E
:1025E0009081092E000CAA0BBB0B840D951DA61D16
:1025F000B71D2C013D01D6CF442A552A662A772AD9
:10260000DECE442A552A662A772AF6CE0F900F90FE
:102610000F900F90DF91CF911F910F91FF90EF904E
:10262000DF90CF90BF90AF909F908F907F906F90F2
:102630005F904F903F902F900895FC01118210827F
:1026400013821282158214821782168284E690E029
:1026500091878087138612861486158616861786BC
:102660008EE190E0A0E0B0E0808B918BA28BB38BE9
:1026700061E08FE10E94183561E08EE10E9418351B
:1026800061E08DE10E94183561E08CE10E9418350F
:1026900061E08BE10E94183561E08AE10E94183503
:1026A00061E089E10E94183561E088E10E941835F7
:1026B00060E086E00E94183560E085E00E941835F1
:1026C00060E08FE00E94183560E08FE10E94543591
:1026D00060E08EE10E94543560E08DE10E94543547
:1026E00060E08CE10E94543560E08BE10E9454353B
:1026F00060E08AE10E94543560E089E10E9454352F
:1027000060E088E10C945435FC011386128608952C
:10271000FC018285938508951F93CF93DF93162F35
:1027200086E00E94823531E020E0019709F030E038
:10273000C32FD22F85E00E948235019709F4C26031
:102740008FE00E948235019709F4C460CE0102C077
:10275000880F991F1A95E2F7DF91CF911F91089585
:10276000EF92FF920F931F93CF938C01C62F7A01A4
:1027700061E08C2F0E945435B701C8010E948C1370
:102780008C0160E08C2F0E94543565E070E080E0A1
:1027900090E00E947534C801CF911F910F91FF9076
:1027A000EF900895CF92DF92EF92FF920F931F93D5
:1027B000CF93DF93EC010E9444346B017C018E8146
:1027C0009F81092E000CAA0BBB0BC816D906EA067E
:1027D000FB060CF494C01982188260E08FE10E941D
:1027E000543560E08EE10E94543560E08DE10E9436
:1027F000543560E08CE10E94543560E08BE10E942A
:10280000543560E08AE10E94543560E089E10E941D
:10281000543560E088E10E94543550E040E06FE1BB
:1028200070E0CE010E94B0138C0143E050E06EE1F5
:1028300070E0CE010E94B013082B192B46E050E047
:102840006DE170E0CE010E94B013082B192B49E016
:1028500050E06BE170E0CE010E94B013082B192B01
:102860004CE050E06CE170E0CE010E94B013082B08
:10287000192B8C819D818017910709F449C0198318
:1028800008831D830C8388859985C80ED91EDF8235
:10289000CE820833110551F481E090E09B878A874E
:1028A00061EE73E082ED9AE00E94E9378A859B85AC
:1028B0001816190624F508301105A1F51982188299
:1028C00001969B878A8768EF73E082ED9AE00E9409
:1028D000C4376A857B854AE050E082ED9AE00E9429
:1028E0009B388A859B85049754F061EE73E082EDF6
:1028F0009AE00E94E93781E090E09B878A87DF9128
:10290000CF911F910F91FF90EF90DF90CF9008959E
:1029100088819981980120733327822B932B998387
:102920008883B7CF0034110551F76EE074E082ED73
:102930009AE00E94E93784E090E0DFCF0F931F9385
:10294000CF93DF938C0160E08FE10E94543560E00B
:102950008EE10E94543560E08DE10E94543560E0C4
:102960008CE10E94543560E08BE10E94543560E0B8
:102970008AE10E94543560E089E10E94543560E0AC
:1029800088E10E94543550E040E06AE170E0C801FF
:102990000E94B013EC0143E050E069E170E0C8012F
:1029A0000E94B013C82BD92B46E050E068E170E0DC
:1029B000C8010E94B0138C2B9D2BF801228133811A
:1029C0002817390711F093838283DF91CF911F91EC
:1029D0000F910895CF93DF93EC010E949E148A819A
:1029E0009B81DF91CF910895FC012081318181E0AD
:1029F00090E02115F2E03F0749F02115344011F035
:102A000090E080E091958195910908950895FC01E9
:102A10002081318181E090E02032310549F0203180
:102A2000310511F090E080E091958195910908952C
:102A30000895FC0184A595A5883F2FEF92071CF00F
:102A4000019795A784A784A595A5892B31F48FEFCD
:102A50009FEF95A784A781E0089580E008958E54A4
:102A60009F4FFC018081918108958E579F4FFC01FB
:102A700080810895FC0186A197A1089586579F4FF4
:102A8000FC01808108959C01FC01E657FF4F808185
:102A9000882351F024543F4F81E0F9012081318196
:102AA0002330310509F080E008959C01FC01E657D0
:102AB000FF4F8081882351F024543F4F81E0F9017A
:102AC000208131812230310509F080E00895CF93D3
:102AD000DF93EC0162E274E082ED9AE00E94E93754
:102AE000FE01EE55FF4F108211821282138261E0C7
:102AF0008E85DF91CF910C945435CF93DF93FC01F9
:102B0000EE55FF4FEC01C255DF4F86569F4FDC015B
:102B10008D919C91092E000CAA0BBB0B4881598109
:102B20006A817B81840F951FA61FB71F80839183C5
:102B3000A283B383DF91CF91089582549F4FFC010C
:102B4000808191810895CF93DF93EC0160E374E07D
:102B500082ED9AE00E94E937FE01EE56FF4F808138
:102B6000811104C0CC57DF4F81E08883DF91CF9182
:102B70000895DC016F5F16964D915C91179790E078
:102B8000262F290FE22FF0E04E175F0764F09F5FBA
:102B90007796EE0FFF1FEA0FFB1F20813181232B59
:102BA00079F381E0089580E00895CF93DF93EC01FD
:102BB0006CE374E082ED9AE00E94E93719824E815D
:102BC0005F8120E0E22FF0E04E175F074CF0779630
:102BD000EE0FFF1FEC0FFD1F118210822F5FF2CF4F
:102BE00088A199A1DF91CF910C945A0BCF92DF92DB
:102BF000EF92FF921F93CF93DF93EC01CB011882EA
:102C000019821A821B821D821C8268E270E07F8317
:102C10006E8360E570E07987688764E670E07B87A3
:102C20006A87E6E9F0E0FD87EC876EE070E07F8779
:102C30006E8763E170E0798B688B6BE070E07B8B73
:102C40006A8B6AE070E07D8B6C8B6DE070E07F8B4F
:102C50006E8B64E170E0798F688F6CE070E07B8F41
:102C60006A8F64E070E07D8F6C8F67E170E07F8F2A
:102C70006E8F1FA21EA261E070E079A768A7AFEF78
:102C8000BFEFBBA7AAA71DA61CA6DE01A058BF4F79
:102C900011961C921E9213961C9211961C921196DC
:102CA0001C9211961C92119611961C921E921296CD
:102CB0001C9211961C9211961C9211961C921196C0
:102CC0001C9211961C9211961C92119611E01C9365
:102CD00011961C9311961C921196CC24CA94DC2C4C
:102CE0007601CD92DD92ED92FC9213971496119697
:102CF0001C921E9212961C9211960F2EF8E8EF2E3F
:102D0000F3E1FF2EF02D1196FC92EE921296ED93C8
:102D1000FC93FE01E256FF4F108211821282138251
:102D2000349610821182128213823496108211829C
:102D30001282138234961082118212821382349688
:102D400010821182128213827E01E4EBEE0EF11CDE
:102D5000F7011083319610823196108231961082DD
:102D600031961082319610823196118210823296FD
:102D7000118210823296118210823C977183608397
:102D80005BA34AA399A388A33DA32CA30E945A0B3B
:102D9000F7011083CE010E94D51561E08A890E9457
:102DA000183561E08A890E94183561E08C890E949B
:102DB000183561E08E890E94183561E0888D0E9487
:102DC000183561E08E850E94183561E088890E947F
:102DD000183561E08A8D0E94183560E08A890E946A
:102DE000543560E08C890E94543561E08E890E94E0
:102DF000543561E0888D0E94543560E08E850E94D4
:102E0000543561E088890E94543560E08A8DDF91F5
:102E1000CF911F91FF90EF90DF90CF900C9454359D
:102E2000DC0116964D915C91179790E0E92FF0E048
:102E30004E175F075CF07796EE0FFF1FEA0FFB1F40
:102E400020813181232B21F49F5FF0CF80E0089512
:102E500081E00895FC0120A531A52F5F3F4F4681F9
:102E600057814217530714F421E030E0CA01D90119
:102E70005796AA0FBB1FAE0FBF1F6D917C91672B9A
:102E800061F4181619064CF42F5F3F4F4217530791
:102E900014F421E030E00197EACF892B29F411A640
:102EA00010A680A591A5089531A720A7FACF1616E0
:102EB0001706ACF4FC0124A535A52930310524F40E
:102EC0002F5F3F4F35A724A7FC0124A535A5232B51
:102ED00041F421E030E035A724A781E008950C9467
:102EE000191580E008950F931F93CF93DF93EC01A2
:102EF0008B01FC01EE54FF4F808191811816190659
:102F00001CF4119501951109898117FF61C088236F
:102F100009F459C02E813F8188A599A501978D3F5D
:102F20004FEF94072CF0281739070CF459C09C0177
:102F300039A728A788A599A5039661F463E070E0F6
:102F40008CA19DA10E94610A97FF04C08EEF9FEFA4
:102F500099A788A788A599A5029661F462E070E018
:102F60008CA19DA10E94610A97FF04C08FEF9FEF83
:102F700099A788A788A599A5019669F461E070E0F2
:102F80008CA19DA10E94610A97FF05C01016110631
:102F90007CF519A618A668A579A588A199A150E085
:102FA00040E0161617064CF49B01295E3F4F220F96
:102FB000331FC20FD31F48815981DF91CF911F91D9
:102FC0000F910C94180B19A618A681E08983B2CF33
:102FD000882349F02E813F8188A599A501969FCF2E
:102FE0002DEF3FEFA5CF81E090E099A788A7EECF26
:102FF0008E819F8199A788A7CECF1F93CF93DF9310
:10300000EC01162F6DE474E082ED9AE00E94C43763
:10301000612F70E04AE050E082ED9AE00E9494381F
:1030200066EF74E082ED9AE00E94E937FE01EA550E
:10303000FF4F112359F0108211821282138261E036
:103040008A8DDF91CF911F910C9454359E012255AA
:103050003F4FC456DF4F88819981092E000CAA0B7F
:10306000BB0BE901488159816A817B81840F951FDF
:10307000A61FB71F80839183A283B383DF91CF9173
:103080001F910895CF93DF93EC0167E574E082ED23
:103090009AE00E94E93760E088890E94543568858B
:1030A0007985072E000C880B990B0E94753461E01E
:1030B00088890E9454356A857B85072E000C880B11
:1030C000990BDF91CF910C9475340F931F93CF938D
:1030D000DF938C01EC01C654DF4F888199818130E8
:1030E0009105F9F0B8F08230910519F1039741F19B
:1030F00068817981F80180A191A10E94720D688197
:103100007981F80184A195A1DF91CF911F910F9151
:103110000C94D308F801E454FF4F80819181892BEE
:1031200019F082E090E002C081E090E0998388830A
:10313000DFCFF801E454FF4F80819181892B19F092
:1031400019821882D5CF83E090E0F0CFFC01E454DF
:10315000FF4F208131812130310571F0C0F02230E4
:10316000310579F02330310579F060817181FC01FE
:1031700080A191A10C94FC0C22E030E031832083EB
:10318000F4CF23E030E0FACF21E030E0F7CF08952C
:103190000F931F93CF93DF93CDB7DEB72C970FB666
:1031A000F894DEBF0FBECDBF8C01FC0166A177A1F4
:1031B0004AE0CE0107960E943B396EEA71E0CE01EB
:1031C00001960E941C39BE01695F7F4FCE010196B6
:1031D0000E94C23961EB74E00E94D539BC0182EDD6
:1031E0009AE00E94B637CE0101960E94AD38CE011A
:1031F00007960E94AD38F801E757FF4F808188237A
:1032000031F068EF71E082ED9AE00E94C437F80176
:10321000E657FF4F8081882331F068EC71E082ED42
:103220009AE00E94C437F801E557FF4F8081882358
:1032300031F066EB71E082ED9AE00E94C437F8014C
:10324000E357FF4F8081882331F061EC71E082ED1C
:103250009AE00E94C437F801E457FF4F8081882329
:1032600031F064E072E082ED9AE00E94C437F80128
:10327000E954FF4F8081882331F06DEE71E082EDDB
:103280009AE00E94C437F801E157FF4F80818823FC
:1032900031F06DEC71E082ED9AE00E94C437F801E4
:1032A000E057FF4F8081882331F069ED71E082EDB6
:1032B0009AE00E94C437F801EF56FF4F80818823BF
:1032C00031F063EE71E082ED9AE00E94C43782ED46
:1032D0009AE00E94D3372C960FB6F894DEBF0FBE4B
:1032E000CDBFDF91CF911F910F910895FC01DC01BB
:1032F000A657BF4F9C9191110EC0808181110CC0C7
:10330000E256FF4F91E04081518162817381452BEC
:10331000462B472B09F090E0892F0895CF93DF9338
:10332000FC01E256FF4F82559F4FEC018881998145
:10333000AA81BB818056904FAF4FBF4F808391834E
:10334000A283B383DF91CF910895FC01E957FF4F2A
:10335000608171816F5F7F4F71836083FC0180A109
:1033600091A10C940D0BCF92DF92EF92FF920F93ED
:103370001F93CF93DF93EC018AA19BA10E94EA14D3
:103380009FA38EA3FE01E757FF4F282F21702083B4
:10339000319681FB222720F92083319682FB222758
:1033A00020F92083329683FB222720F92083AC0169
:1033B00024E0569547952A95E1F74170DE01A45720
:1033C000BF4F4C93BA9685FB222720F92083B897EC
:1033D0009C0156E0369527955A95E1F751E025274F
:1033E00021702083319687FB882780F9808331966E
:1033F000892F81708083BE0166557F4FFB0100815C
:10340000118122813381101611061206130674F4FD
:10341000CE0182559F4FFC01C080D180E280F380B5
:10342000C016D106E206F30654F41C92DF91CF9148
:103430001F910F91FF90EF90DF90CF900895CB57A1
:10344000DF4F4883FB011082118212821382EECF7C
:103450000F931F93CF93DF93EC0164E173E082ED50
:103460009AE00E94E9378E010A541F4FF8018081CB
:10347000811134C08B81811131C0CE010E94B319FA
:10348000FE01E757FF4F8081882341F161E0CE01C3
:103490000E94FD1788A199A10E940F0C61E08E89FE
:1034A0000E94543560E08A890E94543560E08C891E
:1034B0000E94543560E08E850E9454358CA19DA1F8
:1034C0000E94140AFE01ED57FF4F108281E0F801BF
:1034D00080831B82C254DF4F19821882DF91CF9103
:1034E0001F910F910895CF92DF92EF92FF921F9359
:1034F000CF93DF93EC016C018AE8C80ED11CF60172
:10350000108181E0182769E674E082ED9AE00E945C
:10351000E937F601608170E04AE050E082ED9AE020
:103520000E94943861E874E082ED9AE00E94C4370A
:10353000612F70E04AE050E082ED9AE00E949B38F3
:1035400060E08A890E94543561E08C890E9454357C
:1035500060E08E890E94543584E1E82EF12CF6015A
:1035600080818117E1F0CE010E94C81865E070E00B
:1035700080E090E00E947534CE010E94B319F1E022
:10358000EF1AF10861F765E874E082ED9AE00E94B5
:10359000E93763E070E088A199A10E94520B61E0D5
:1035A0008E890E94543560E08A890E94543560E01B
:1035B0008C89DF91CF911F91FF90EF90DF90CF909A
:1035C0000C945435EF92FF920F931F93CF93DF9398
:1035D000EC0161EA74E082ED9AE00E94E937FE01B5
:1035E000EA54FF4F8081811147C08A81811144C014
:1035F0007E018EEBE80EF11CF701808191818E0136
:103600000E541F4F892B71F5FE01EB54FF4F808143
:103610008A83CE010E944B1E6C857D85072E000C8F
:10362000880B990B0E947534CE010E94B319FE01DC
:10363000E655FF4FDE01A255BF4F8D919D910D9034
:10364000BC91A02D8056904FAF4FBF4F8083918388
:10365000A283B3838A81811116C061E0CE010E94EA
:10366000FD1718C08A890E948235019769F6F80112
:103670008081918197FFC8CFDF91CF911F910F91EA
:10368000FF90EF9008958B818111E7CF60E08A8DE4
:103690000E945435CE010E94671560E0888D0E941B
:1036A000543561E08E890E94543564E670E080E014
:1036B00090E00E9475348CA19DA10E94AD0AF80192
:1036C0008081918160E097FF3BC08C890E945435D6
:1036D00061E08A890E94543562E370E080E090E006
:1036E0000E947534CE010E94421864E670E080E0CA
:1036F00090E00E94753460E08E890E94543561E04C
:1037000070E08CA19DA10E942A0A81E090E0F7015F
:10371000918380838A81882321F088A199A10E94C6
:10372000890B88A199A1F8012081318137FF0EC052
:103730000E946F0C1B82CD57DF4F81E088839CCFA6
:103740008A890E94543561E08C89C4CF0E94400C64
:10375000F1CFEF92FF920F931F93CF93DF93EC0182
:10376000F62E8A010E94D515CE010E944B1EFE0145
:10377000E756FF4FF0827E0183E9E80EF11C012E2F
:10378000000C220B330BF701008311832283338358
:103790008CA19DA10E945D0A8C016FEF7FEF88A133
:1037A00099A10E940D0BFE01EE54FF4F60817181C3
:1037B0004AE050E082ED9AE00E9494386EEA74E0AC
:1037C00082ED9AE00E94C4374AE050E0B80182EDF1
:1037D0009AE00E94943863EB74E082ED9AE00E94D4
:1037E000C437F70140815181628173812AE030E062
:1037F00082ED9AE00E944C38012E000C220B330B14
:10380000F7014081518162817381CE010417150750
:103810002607370744F4DF91CF911F910F91FF9056
:10382000EF900C94E21ADF91CF911F910F91FF90CE
:10383000EF900C940C1FAF92BF92CF92DF92EF9259
:10384000FF920F931F93CF93DF93EC0160EF72E031
:1038500082ED9AE00E94E937CE010E94B3191A82E4
:1038600089818823D9F168A579A56D3F8FEF780705
:103870004CF06F3FEFEF7E07D9F0D4F050E040E01E
:10388000672BF1F06BEB74E082ED9AE00E94E93770
:1038900070E060E088A199A1DF91CF911F910F9115
:1038A000FF90EF90DF90CF90BF90AF900C94520BB1
:1038B0007195619571098CA19DA10E94610AAC016D
:1038C00061E0CE01DF91CF911F910F91FF90EF90BA
:1038D000DF90CF90BF90AF900C94A91B88A199A1C5
:1038E0000E944F0B882321F088A199A10E945A0BB6
:1038F0007E01F6EBEF0EF11CF70180818823A1F128
:1039000061E08E890E945435CE010E946715FE0148
:10391000EE54FF4F8081918160E097FF1FC08C893A
:103920000E94543561E08A890E945435F701108263
:1039300060E0CE010E94FD1788A199A10E94890B29
:103940008CA19DA1DF91CF911F910F91FF90EF90DE
:10395000DF90CF90BF90AF900C946D098A890E9440
:10396000543561E08C89E0CF6E01F5EBCF0ED11CB0
:10397000F6018081882331F0399680819181892BED
:1039800009F410C18E010E561F4FF801808181117C
:1039900008C08881811105C0CE010E9410178111D5
:1039A000EEC0F80110825E01F9E8AF0EB11CF5011E
:1039B0008081882361F0CE010E944B1E64E670E096
:1039C00080E090E00E947534CE010E94B319F601A8
:1039D0008081811117C0FE01E454FF4F80819181E5
:1039E000009781F021E0FA972083039759F481E052
:1039F00090E035969183808361E070E088A199A181
:103A00000E940D0BFE01E457FF4F80818E010B5782
:103A10001F4FF80180836DEC74E082ED9AE00E9404
:103A2000C437F801608170E04AE050E082ED9AE02E
:103A30000E949B3861E0888D0E94543561E08E8938
:103A40000E94543560E08C890E94543560E08A8978
:103A50000E945435CE010E946715CE010E94B31911
:103A6000F501808181112AC064E670E080E090E079
:103A70000E947534CE010E94421862E370E080E03B
:103A800090E00E947534CE010E94B3190BE010E063
:103A9000F5018081811112C062E370E080E090E066
:103AA0000E947534CE010E94B3190150110981F7AB
:103AB00064E070E088A199A10E94520BFE01EE54CF
:103AC000FF4F8081918160E097FF66C08C890E94E2
:103AD000543561E08A890E94543560E0CE010E942D
:103AE000FD178CA19DA10E946D0988A199A10E943A
:103AF000890BFE01E254FF4F1182108281E0F60132
:103B00008083F70110821B821DA61CA6FE01EC57C4
:103B1000FF4F108231978083F79680819181892BA6
:103B200021F03197108231971082FE01E655FF4F48
:103B3000DE01A255BF4F8D919D910D90BC91A02D9E
:103B40008C509E4FAF4FBF4F80839183A283B3832E
:103B500068EC70E080E090E00E94753460E0CE0197
:103B60000E94FD17CE01DF91CF911F910F91FF9021
:103B7000EF90DF90CF90BF90AF900C94B319CE012F
:103B8000DF91CF911F910F91FF90EF90DF90CF9039
:103B9000BF90AF900C94DA1F8A890E94543561E07F
:103BA0008C8999CFDF91CF911F910F91FF90EF906A
:103BB000DF90CF90BF90AF9008950F931F93CF9356
:103BC000DF93EC0165EE74E082ED9AE00E94E93744
:103BD000FE01EA54FF4F8081811158C031978081E6
:103BE000811105C0399680819181892B19F0CE0110
:103BF0000E944B1E8E0104541F4FF8018081918159
:103C0000892B09F040C0CE010E945C218823F1F18C
:103C100081E090E0F80191838083CE010E94731AC5
:103C2000F8016081718188A199A10E94FC0CFE01BC
:103C3000E654FF4F808191818D7F892B51F082E086
:103C400090E09183808362E070E088A199A10E9456
:103C5000720DF801808191810197C1F4FE01E45752
:103C6000FF4F8081882391F0369781E0808361E067
:103C700088A199A10E94EB0ACE01DF91CF911F91FB
:103C80000F910C941B1C11821082C7CFDF91CF9132
:103C90001F910F910895CF92DF92EF92FF920F93B1
:103CA0001F93CF93DF93EC016AE373E082ED9AE018
:103CB0000E94E9378CA19DA10E94140A6E0125EB98
:103CC000C20ED11CF601808181111AC0BB97808180
:103CD000882359F0CE01DF91CF911F910F91FF9072
:103CE000EF90DF90CF900C94DD1DFE01E254FF4F6A
:103CF00080819181892B21F48B81882309F475C0FF
:103D0000CE010E94B31961E0CE010E94FD1761E06F
:103D1000888D0E94543561E08E890E94543560E0A0
:103D20008A890E94543560E08C890E9454358E0146
:103D30000A541F4FF8018081882319F0CE010E9498
:103D40006715FE01E757FF4F8081882319F0CE01E8
:103D50000E9442188C819D819E0122543F4F79011F
:103D6000181619068CF4F90120813181232B61F09A
:103D70002AE0289FB001299F700D1124072E000C06
:103D8000880B990B0E947534CE010E947D1588A185
:103D900099A10E94C60BF6011082F70111821082D0
:103DA0001B82FE01EA57FF4F10821DA61CA6F801D8
:103DB0001082FE01EE57FF4F1082B89610821182DA
:103DC00012821382B797108266E970E080E090E07B
:103DD0000E947534CE01DF91CF911F910F91FF901A
:103DE000EF90DF90CF900C94B319DF91CF911F919A
:103DF0000F91FF90EF90DF90CF900895FC01EB546E
:103E0000FF4F2081211105C0399620813181232B5C
:103E100011F00C944B1E0895EF92FF920F931F9395
:103E2000CF93DF93EC0168EF74E082ED9AE00E949B
:103E3000E937FE01EA54FF4F8081811147C08A8132
:103E4000811144C08E0102541F4FF801808191817D
:103E50009E012E543F4F7901892B71F5FE01EB54E1
:103E6000FF4F80818A83CE010E944B1E6C857D8529
:103E7000072E000C880B990B0E947534CE010E940E
:103E8000B319FE01E655FF4FDE01A255BF4F8D91DC
:103E90009D910D90BC91A02D8056904FAF4FBF4F7C
:103EA00080839183A283B3838A81811116C061E0EC
:103EB000CE010E94FD1718C08A890E948235892B85
:103EC00069F6F7018081918197FFC8CFDF91CF918B
:103ED0001F910F91FF90EF9008958B818111E7CF93
:103EE00060E08A8D0E945435CE010E94671560E023
:103EF000888D0E94543561E08E890E94543564E6B5
:103F000070E080E090E00E9475348CA19DA10E9439
:103F1000AD0AF7018081918160E097FF40C08A89F6
:103F20000E94543561E08C890E94543562E370E050
:103F300080E090E00E947534CE010E94421864E651
:103F400070E080E090E00E94753460E08E890E940D
:103F500054356FEF7FEF8CA19DA10E942A0A82E069
:103F600090E0F801918380838A81882321F088A1E1
:103F700099A10E94890B88A199A1F7012081318123
:103F800037FF13C00E94400C81E090E0F80191835C
:103F900080831B82CD57DF4F81E0888397CF8C8948
:103FA0000E94543561E08A89BFCF0E946F0C82E085
:103FB00090E0ECCF0F931F93CF93DF93EC0164E07D
:103FC00075E082ED9AE00E94E93719828E0106546D
:103FD0001F4F82E090E0F801918380833197108237
:103FE00081E088831BA61AA619A618A6B797808316
:103FF000B0968081918197FF14C0CE010E940C1F62
:10400000F8016081718188A199A10E94720D6FEF02
:104010007FEF88A199A1DF91CF911F910F910C940F
:104020000D0BCE010E94E21AEBCFFF920F931F936C
:10403000CF93DF93EC0165E175E082ED9AE00E9499
:10404000E9378E0102541F4FF80180819181892B3D
:1040500021F08B81882309F47AC0FE01EA54FF4FD6
:104060008081811174C08B8181110EC03197808154
:10407000811123C061E070E0CE01DF91CF911F91EB
:104080000F91FF900C947317FE01EE54FF4F808147
:104090009181181619060CF04AC0CE010E9419151C
:1040A000F82E6CA57DA588A199A10E94F90AFF2090
:1040B00009F44DC0F8011182108281E08B838E01DA
:1040C0000E541F4FF8018081918118161906ACF526
:1040D000CE010E940C1F61E08A8D0E9454351A8225
:1040E000FE01EC57FF4F108281E08B83F801808145
:1040F0009181181619062CF5CE010E94191588A178
:1041000099A10E94890B61E088A199A10E94EE0A01
:104110006CA57DA588A199A10E94F90A88A199A101
:10412000DF91CF911F910F91FF900C946F0C61E084
:1041300070E0CE010E945717B3CFCE010E94E21A61
:10414000CACF61E070E0CE010E945717D8CFDF914F
:10415000CF911F910F91FF900895FF920F931F939E
:10416000CF93DF93EC0162E275E082ED9AE00E946A
:10417000E9378E0102541F4FF80180819181892B0C
:1041800021F08B81882309F476C0FE01EA54FF4FA9
:104190008081811170C08B8181110EC03197808127
:1041A000811121C06FEF7FEFCE01DF91CF911F9181
:1041B0000F91FF900C947317FE01EE54FF4F808116
:1041C000918197FF48C0CE010E941915F82E6CA569
:1041D0007DA588A199A10E94F90AFF2009F44BC08E
:1041E000F8011182108281E08B838E010E541F4FE3
:1041F000F8018081918197FF34C0CE010E940C1F8D
:1042000061E08A8D0E9454351A82FE01EC57FF4FFF
:10421000108281E08B83F8018081918197FF25C016
:10422000CE010E94191588A199A10E94890B61E015
:1042300088A199A10E94EE0A6CA57DA588A199A1EB
:104240000E94F90A88A199A1DF91CF911F910F9146
:10425000FF900C94400C61E070E0CE010E94571773
:10426000B5CFCE010E94E21ACBCF61E070E0CE0163
:104270000E945717D8CFDF91CF911F910F91FF90D8
:104280000895CF93DF93EC0163E375E082ED9AE04C
:104290000E94E93781E090E099A788A718828FEF04
:1042A0009FEF9BA78AA71B82CE010E94D515CE0146
:1042B000DF91CF910C944B1ECF93DF93EC01FC0167
:1042C000EE54FF4F80819181B297181619062CF099
:1042D000892BC9F0FE01EF56FF4F8081811113C079
:1042E00062E475E082ED9AE00E94E93770E060E0F8
:1042F00088A199A10E94520BCE010E944B1E80E022
:10430000DF91CF91089566E575E082ED9AE00E9415
:10431000E93781E0F5CF0F931F93CF93DF93EC0143
:1043200088A199A10E944F0B8823E1F168A579A586
:104330006D3F8FEF780754F06F3F8FEF7807D9F01C
:10434000D4F050E040E061157105E9F0FB01EE0F9B
:10435000FF1FEC0FFD1F88A199A126A537A5232BD0
:10436000D1F017A616A642E050E0DF91CF911F9141
:104370000F910C94180B7195619571098CA19DA1F9
:104380000E94610AAC0160E0CE01DF91CF911F91E4
:104390000F910C94A91B21E030E037A726A741E03C
:1043A00050E0E3CFCE010E941017882369F008A1E6
:1043B00019A1CE010E942A17BC01C801DF91CF913B
:1043C0001F910F910C940D0B6CE675E082ED9AE055
:1043D0000E94E93770E060E088A199A1DF91CF9158
:1043E0001F910F910C94520BCF92DF92EF92FF929C
:1043F0000F931F93CF93DF93EC0166E875E082ED96
:104400009AE00E94E937FE01EA54FF4F8081811152
:104410008AC0389680819181892B09F084C03997B0
:10442000E080EE2019F0CE010E944B1E6E018BE859
:10443000C80ED11CF601F08081E0F826CE010E9462
:1044400067156C857D85072E000C880B990B0E94E3
:10445000753461E08A890E94543560E08C890E943D
:10446000543560E08E890E94543510E000E0F6017A
:104470008081F81651F0083EF3E01F0731F0CE01BD
:104480000E94B3190F5F1F4FF2CF61E08E890E9427
:10449000543560E08A890E94543560E08C890E941E
:1044A0005435083E134061F469E975E082ED9AE005
:1044B0000E94E93762E070E088A199A10E94520B46
:1044C0006C857D85072E000C880B990B0E94753436
:1044D000FE01EE54FF4F8081918191958195910964
:1044E00091838083EE2059F0CE01DF91CF911F910F
:1044F0000F91FF90EF90DF90CF900C941B1C68EC15
:1045000070E080E090E00E947534CE010E947D153D
:10451000CE01DF91CF911F910F91FF90EF90DF902F
:10452000CF900C94B319DF91CF911F910F91FF9011
:10453000EF90DF90CF900895AF92BF92CF92DF922D
:10454000EF92FF920F931F93CF93DF93EC010E94A2
:1045500044348E0102551F4FF801608371838283BA
:104560009383CE010E94B3197E01FEE9EF0EF11C88
:10457000F70180819181A281B381181619061A066C
:104580001B0694F4F8014081518162817381841784
:104590009507A607B70744F4CE010E94281AF70131
:1045A00010821182128213829E012E553F4FF90113
:1045B00080819181A281B381181619061A061B0603
:1045C0006CF5F801408151816281738184179507F0
:1045D000A607B7071CF5F901108211821282138217
:1045E00060E08E850E94543560EB75E082ED9AE0C4
:1045F0000E94E937FE01ED57FF4F9081369680818A
:10460000981761F064EC75E082ED9AE00E94E9375A
:1046100064E070E088A199A10E94520B7E01F3E949
:10462000EF0EF11CF70180819181A281B381B7FD6A
:1046300025C08CA19DA10E945D0AF7016081718156
:104640008CA19DA10E94740A8823C1F08FEF9FEF77
:10465000DC01F70180839183A283B38370E060E083
:1046600088A199A10E940D0BFE01E756FF4F8081A2
:10467000882309F477C0CE010E941B1C9E012A5595
:104680003F4FF90180819181A281B38118161906EB
:104690001A061B06CCF4F8014081518162817381B6
:1046A00084179507A607B7077CF4F90110821182D9
:1046B0001282138260E08A8D0E9454356EEE75E09E
:1046C00082ED9AE00E94E93788A199A1FE01E557A1
:1046D000FF4F2081AE014E545F4F7A01222309F42F
:1046E00045C02FEF3FEFFA01318320830E949E0CDB
:1046F000F701608171818CA19DA10E94A20A88812D
:1047000081113CC08B81882309F4E3C0FE01EC5782
:10471000FF4F8081882309F4DCC010826CA57DA541
:104720008FEF9FEF1616170614F081E090E0680FE8
:10473000791F7DA76CA788A199A10E94F90A8CA571
:104740009DA5892B09F099C21B82CE01DF91CF91E3
:104750001F910F91FF90EF90DF90CF90BF90AF909F
:104760000C941B1CCE010E944B1E88CF21E030E030
:10477000FA01318320830E94CD0CBACFFE01E457A9
:10478000FF4F80818E010E561F4FF80190819111CD
:104790002DC0882309F457C03D978081811153C0F3
:1047A000CE010E94F421EAA5FBA59F012F5F3F4F98
:1047B0003BA72AA77896EE0FFF1FEC0FFD1F808105
:1047C0009181892B19F4CE010E9415206AA57BA541
:1047D00088A199A1DF91CF911F910F91FF90EF9048
:1047E000DF90CF90BF90AF900C940D0B811106C05D
:1047F000FE01E954FF4F8081882329F1CE010E94F8
:104800004B1EF8011082CE010E941B1C81E0FE01AC
:10481000EB57FF4F808381E090E09BA78AA761E080
:1048200070E088A199A10E940D0BEAA5FBA57796DF
:10483000EE0FFF1FEC0FFD1F80819181892B19F472
:10484000CE010E941520FE01EC57FF4F8081882386
:10485000A1F11082EAA5FBA57F014FEFE41AF40A4B
:10486000FBA6EAA62B817896EE0FFF1FEC0FFD1F2B
:1048700080819181892BD9F421111FC0B701CE010C
:104880000E94B915882331F08E819F81E816F906C0
:1048900009F099CFCE01DF91CF911F910F91FF9039
:1048A000EF90DF90CF90BF90AF900C9441212223E6
:1048B00021F01B82CE010E941B1C88A199A1F80146
:1048C0002081222319F06FEF7FEF84CF6AA57BA5AB
:1048D00081CF6E01FEEBCF0ED11CF601808191815C
:1048E000009761F0F2972081AE0149545F4F5A0161
:1048F000211189C1FA011081111182C16E01F2E802
:10490000CF0ED11CF60180818823E1F13D962081F4
:104910002223C9F0BD96808191810297029798F475
:1049200068E676E082ED9AE00E94E937CE01DF91F9
:10493000CF911F910F91FF90EF90DF90CF90BF909C
:10494000AF900C944B1EFE01EA54FF4F8081811101
:1049500019C03696808191810197A1F0222369F0D8
:10496000CE01DF91CF911F910F91FF90EF90DF90DB
:10497000CF90BF90AF900C94281A8E8D0E948235F4
:10498000892B71F3FE01EB54FF4F8081882309F4DA
:1049900098C0BF978081882329F1DE01A457BF4FBB
:1049A0008C9181111FC01082CE010E944B1E60E0CD
:1049B00088A199A10E94EB0A61E070E088A199A109
:1049C0000E94FC0C63E876E082ED9AE0DF91CF91E3
:1049D0001F910F91FF90EF90DF90CF90BF90AF901D
:1049E0000C94E9378E010B571F4FF8018081882303
:1049F00061F037968081811108C0F801108269E961
:104A000076E082ED9AE00E94E937FE01E954FF4F1B
:104A10008081811109C0BB978081882309F451C02E
:104A2000F801808181114DC0FE01EA54FF4F808161
:104A3000811123C1F60180818E0106541F4F882306
:104A400009F167EB76E082ED9AE00E94E937F80120
:104A5000608171814AE050E082ED9AE00E949B38CB
:104A6000F80180819181029709F060CFCE010E9408
:104A7000F421F80111821082CE010E945C21811183
:104A8000FCC054CF61ED76E082ED9AE00E94C4371D
:104A9000F801608171814AE050E082ED9AE00E9465
:104AA0009B38F801808191818130910509F45AC0C9
:104AB00008F43CCF8230910509F46EC0039709F4E5
:104AC0008CC08E010C541F4FF8018081882309F49B
:104AD000D4C061E0CE010E94FD17F80110820B5294
:104AE0001109F8018081882321F161E08E850E94FF
:104AF0005435CE010E94421864EF71E080E090E0EE
:104B00000E94753460E08E850E945435CE010E946B
:104B1000B319F8018081882361F065EF76E082EDBA
:104B20009AE00E94E93761E070E088A199A10E94B3
:104B3000520B8CA19DA10E94D9088E0106541F4FD3
:104B4000F80191838083F0978081882319F0CE014A
:104B50000E94731A88A199A10E945A0BF8016081E2
:104B600071812DC0CE010E944B1E64EF71E080E088
:104B700090E00E947534F7018081918197FF08C011
:104B8000CE010E94E21AC854DF4F81E0888375C0CD
:104B9000CE010E940C1FF7CF7E01F9EBEF0EF11C46
:104BA000F70180818111C2CECE010E94F42181E003
:104BB000F7018083F8011182108270E060E088A123
:104BC00099A1DF91CF911F910F91FF90EF90DF900E
:104BD000CF90BF90AF900C94720DCE010E94F42143
:104BE00068EE73E080E090E0DF91CF911F910F912C
:104BF000FF90EF90DF90CF90BF90AF900C94753402
:104C00008230910531F0FE01E854FF4F1081029788
:104C100021F48CA19DA10E947D0969EF75E082EDD0
:104C20009AE00E94E937F501808160E176E0811128
:104C300002C06DE276E082ED9AE00E94E937F6016B
:104C4000808191816BE476E0029711F069E576E06E
:104C500082ED9AE00E94E937CE010E944B1E11239B
:104C600049F0CE010E941B1C64EF71E080E090E0EF
:104C70000E947534C854DF4F1882DF91CF911F9185
:104C80000F91FF90EF90DF90CF90BF90AF9008957D
:104C900008958130F1F088F0823039F1833089F164
:104CA0009091680021E030E001C0220F8A95EAF778
:104CB000892F822B80936800089590B1E42FF0E053
:104CC000EB50F64F908390916B00692B60936B00D3
:104CD000E7CF93B1E42FF0E0EB50F64F9083909143
:104CE0006C00692B60936C00DBCF96B1E42FF0E091
:104CF000EB50F64F908390916D00692B60936D009F
:104D0000CFCF99B1E42FF0E0EB50F64F9083909124
:104D10007300692B60937300C3CF0895E091140171
:104D2000F09115010994E0911201F0911301099499
:104D3000E0911001F09111010994E0910E01F091C0
:104D40000F010994E0910C01F0910D010994E0919B
:104D50000A01F0910B010994E0910801F091090119
:104D60000994E0910601F091070109941F920F92B6
:104D70000FB60F9211240BB60F922F933F934F93C0
:104D80005F936F937F938F939F93AF93BF93CF93D3
:104D9000EF93FF9393B18091F609C091EE09C92377
:104DA000282F2095C2232091F2098223292F2095B4
:104DB0008223C82B9093F609C0FD0E948E26C1FD68
:104DC0000E949326C2FD0E949826C3FD0E949D2644
:104DD000C4FD0E94A226C5FD0E94A726C6FD0E9412
:104DE000AC26C7FD0E94B126FF91EF91CF91BF91F4
:104DF000AF919F918F917F916F915F914F913F9173
:104E00002F910F900BBE0F900FBE0F901F90189513
:104E10000895E0912401F09125010994E091220187
:104E2000F09123010994E0912001F091210109946E
:104E3000E0911E01F0911F010994E0911C01F09195
:104E40001D010994E0911A01F0911B010994E09170
:104E50001801F09119010994E0911601F0911701E0
:104E600009941F920F920FB60F9211240BB60F9256
:104E70002F933F934F935F936F937F938F939F9362
:104E8000AF93BF93CF93EF93FF9396B18091F709C0
:104E9000C091EF09C923282F2095C2232091F3093F
:104EA0008223292F20958223C82B9093F709C0FDD8
:104EB0000E940927C1FD0E940E27C2FD0E941327F0
:104EC000C3FD0E941827C4FD0E941D27C5FD0E9436
:104ED0002227C6FD0E942727C7FD0E942C27FF918D
:104EE000EF91CF91BF91AF919F918F917F916F91F2
:104EF0005F914F913F912F910F900BBE0F900FBE7E
:104F00000F901F90189590E080E008950895FC019F
:104F100077FD64C080859185681779070CF05EC0C5
:104F200057FD5CC082859385481759070CF056C021
:104F300086898230B1F0833029F1813041F4848157
:104F40009581841B950BAB01BC0161507109213027
:104F5000310509F108F443C02230310509F463C07A
:104F6000089584819581DC01A61BB70BBD016150BA
:104F7000710986819781DC01A41BB50BAD014150FD
:104F80005109E5CF86819781861B970BBA01AC0149
:104F900041505109DCCFCA0157FD0796A3E0959512
:104FA0008795AA95E1F7A481B5818A9F90018B9F8F
:104FB000300D9A9F300D1124620F731F078CF0A1E2
:104FC000E02DE60FF71F4770552721E030E001C0C4
:104FD000220F4A95EAF78081822B80830895CA01C7
:104FE00057FD079633E0959587953A95E1F7A481AB
:104FF000B5818A9F90018B9F300D9A9F300D1124AF
:10500000620F731F078CF0A1E02DE60FF71F4770AA
:10501000552781E090E001C0880F4A95EAF7809516
:1050200090818923DACFCA0157FD079623E0959531
:1050300087952A95E1F7A481B5818A9F90018B9F7E
:10504000300D9A9F300D1124620F731F078CF0A151
:10505000E02DE60FF71F4770552721E030E001C033
:10506000220F4A95EAF780818227B7CF2091FB096A
:10507000222381F03FB7F8942091FB09213069F495
:105080002DB32093F9094DB32091FA0920952423DB
:105090002DBB3FBF8CBD9DBD08953093F909FACF5C
:1050A0008EBD00000DB407FEFDCF8EB50895809132
:1050B000FB09882361F09FB7F8942091FB09809148
:1050C000F909213019F48DBB9FBF08958FBF089552
:1050D0004F925F926F927F928F929F92AF92BF9208
:1050E000CF92DF92EF92FF920F93CF93DF93CDB7E2
:1050F000DEB73C01290150E070E00E949F2D81E164
:1051000097E0F30191838083148E138E4114510430
:1051100021F48CEF482E89E0582EF301568E458EEF
:1051200010A2178E8FEF84A385A386A387A300A761
:10513000C5AAD6AAE7AAF0AE81AE92AEA3AEB4AE2F
:1051400080E586AF17AEDF91CF910F91FF90EF9082
:10515000DF90CF90BF90AF909F908F907F906F9097
:105160005F904F90089521E137E0FC013183208367
:10517000878D90A1009711F00C94E83A08951F9341
:10518000CF93DF93EC018D8D9E8D009711F1162F3B
:1051900069A1062E000C770B0E9494318D8D9E8D97
:1051A000DC01ED91FC910190F081E02D60E009952A
:1051B0008D8D9E8DDC01ED91FC910190F081E02DB3
:1051C000612F09958D8D9E8DDF91CF911F910C944C
:1051D000A931ADA5BEA59C918BA9809589238C93FF
:1051E0008B8D9C8D892B31F0862FDF91CF911F9174
:1051F0000C94502828E030E080E8A9A5BAA599A928
:10520000462F4823C1F04C91942B9C93ABA5BCA591
:105210009C914AA9942B9C93ABA5BCA54C919AA9AF
:10522000909594239C9386952150310931F7DF9115
:10523000CF911F9108954C9190959423E6CF1F93A1
:10524000CF93DF93EC01162F8D8D9E8D0097C9F0C3
:105250004DA95EA96FA978AD0E94863166EA111149
:1052600067EACE010E94BF288D8D9E8D0097C9F000
:1052700049AD5AAD6BAD7CADDF91CF911F910C94D0
:1052800086318B8D9C8D892B21F08EAD9FAD0E9438
:105290003628EFA5F8A990818CA980958923808371
:1052A000DDCFEFA5F8A980819CA9892B80838B8D08
:1052B0009C8D892B29F0DF91CF911F910C94572859
:1052C000DF91CF911F9108950F931F93CF93DF9399
:1052D000DC0157FD46C016968D919C911797481793
:1052E00059070CF03EC077FF04C0260F371F70E04F
:1052F00060E01496CD91DC911597CB01820F931F3E
:10530000C817D9071CF49E01261B370B121613066B
:1053100044F5FA0157FD379683E0F595E7958A95B0
:10532000E1F7EC9FC001ED9F900DFC9F900D1124C3
:10533000680F791F5F96ED91FC91E60FF71F47709C
:10534000552781E090E001C0880F4A95EAF7482F81
:105350000130110559F0A8F02E0F3F1F0230110542
:10536000E1F0DF91CF911F910F9108952E0F3F1F14
:10537000E217F307B1F38191DF011197842B8C932E
:10538000F7CF80952E0F3F1FE217F30751F391914E
:10539000DF01119798239C93F7CFE217F30709F3E6
:1053A0008191DF01119784278C93F7CFEF92FF92C1
:1053B0000F931F93CF93DF93EC0177FD76C0EC80C2
:1053C000FD806E157F050CF070C057FF04C0240FE0
:1053D000351F50E040E08E819F81FA01E20FF31FFC
:1053E0008E179F071CF49C01241B350B1216130605
:1053F0000CF05BC0922F842F8695869586958E9DA6
:10540000D0018F9DB00D11246A0F7B1FAF8DB8A105
:10541000A60FB71F477049F188E0841B482F682FFB
:1054200070E0FB01EC56FF4FE491281708F063C0D1
:10543000621B71092FEF30E002C0359527956A9500
:10544000E2F7E2230130110539F0B0F10230110525
:1054500061F58C91E82702C08C91E82BEC939417AE
:1054600020F12C813D81A20FB31FE92FE41BE8300E
:1054700078F00230110521F58E2F9C9190959C9328
:105480002C813D81A20FB31F88508830B0F7E770A0
:10549000EE2359F0F0E0E457FF4FE491013011059D
:1054A000F9F010F10230110519F1DF91CF911F9140
:1054B0000F91FF90EF900895E0958C91E823CECF67
:1054C00081E00115110509F480E081959E2F8C93F0
:1054D0002C813D81A20FB31F98509830C0F7D7CFD1
:1054E0008C91E82BEC93E1CFE0958C91E823FACFF7
:1054F0008C91E827F7CF0130110509F4ADCFE0F228
:105500000230110509F4A5CFAE0DBF1DAECF0F932C
:105510001F93FA01DC0156964C915697423089F060
:10552000433039F14130F9F414964D915C91DA0130
:10553000AE1BBF0BFD013197AB01BF010E94D62905
:1055400015C016964D915C91DA01AE1BBF0BFD01A3
:105550003197DC0114964D915C91DA01A61BB70BD3
:10556000BD01621B730BAF010E9464291F910F9153
:10557000089516964D915C91DA01A61BB70BBD01FB
:10558000621B730BD9CF0F931F93FA01DC01569660
:105590004C915697423091F0433049F1413009F532
:1055A00014964D915C91DA01AE1BBF0BFD01E21B1D
:1055B000F30BAB01BF010E94642916C014964D91F4
:1055C0005C91DA01A61BB70BBD0161507109DC01CA
:1055D00016964D915C91DA01AE1BBF0BFD01E21BEB
:1055E000F30BAF010E94D6291F910F9108951696D3
:1055F0004D915C91DA01A61BB70BBD016150710999
:10560000D8CF2F923F924F925F926F927F928F925C
:105610009F92AF92BF92CF92DF92EF92FF920F9341
:105620001F93CF93DF9300D000D000D0CDB7DEB76B
:105630003C016A013E832D83FC82EB825801A41A4F
:10564000B50AB7FE03C0B194A194B1088D809E80C5
:10565000861A970A97FE03C09194819491088A1440
:105660009B045CF0902F812F0D811E819D838E8382
:105670009C2D8D2D6B01692F782F0C151D055CF06D
:105680009D818E817E836D83692F782F902F812F4E
:105690008601C92ED82E1601201A310A2B012D8120
:1056A0003E81421A530A57FE03C051944194510857
:1056B000710137FE03C03FEFE31AF30AF594E79454
:1056C0008D819E81861797075CF5A1E0B0E0BA83D3
:1056D000A983C016D1064CF1D301ED91FC9104844D
:1056E000F585E02D2B813C81A8016D817E818A1496
:1056F0009B041CF04D815E81B801C3010995E4183B
:10570000F508F7FE0AC02D813E8189819A81280F14
:10571000391F3E832D83E20CF31C0F5F1F4FD9CF3F
:105720002FEF3FEF3A832983D4CF26960FB6F89414
:10573000DEBF0FBECDBFDF91CF911F910F91FF90C4
:10574000EF90DF90CF90BF90AF909F908F907F9021
:105750006F905F904F903F902F9008950895DC01D7
:10576000ED91FC910084F185E02D09940F931F9336
:10577000DC01ED91FC91048CF58DE02D09951F91D4
:105780000F9108950F931F93DC01ED91FC91068C0E
:10579000F78DE02D09951F910F910895EF92FF92DB
:1057A0000F931F93DC01ED91FC9100A0F1A1E02D7E
:1057B00009951F910F91FF90EF9008958F929F92FE
:1057C000AF92BF92CF92DF92EF92FF920F931F930F
:1057D000CF93DF93EC015B014A0169017801E88115
:1057E000F9810284F385E02D0995C80CD91C860146
:1057F00001501109E881F9810488F589E02D9501AE
:10580000A401B501CE010995E881F9810688F789DF
:10581000E02DCE01DF91CF911F910F91FF90EF907E
:10582000DF90CF90BF90AF909F908F9009948F9210
:105830009F92AF92BF92CF92DF92EF92FF920F931F
:105840001F93CF93DF93EC015B014A016901E8816B
:10585000F9810284F385E02D099595012C0D3D1DFC
:1058600021503109E881F9810488F589E02D78011A
:105870008401A401B501CE010995E881F98106886A
:10588000F789E02DCE01DF91CF911F910F91FF900D
:10589000EF90DF90CF90BF90AF909F908F90099442
:1058A0004F925F926F927F928F929F92AF92BF9230
:1058B000CF92DF92EF92FF920F931F93CF93DF93DC
:1058C0006C012B015A0139014801DC01ED91FC9179
:1058D0000284F385E02D0995E201640C751CD60164
:1058E000ED91FC91C615D7055CF40088F189E02D97
:1058F00087019401A501BE01C60109952196EFCF4C
:105900000688F789E02DC601DF91CF911F910F9195
:10591000FF90EF90DF90CF90BF90AF909F908F90CF
:105920007F906F905F904F900994EF92FF920F934A
:105930001F93DC011A960D911C911B9718962D91BF
:105940003C911997ED91FC9100A0F1A1E02D7B0114
:1059500050E040E070E060E009951F910F91FF90EA
:10596000EF9008956F927F928F929F92AF92BF9225
:10597000CF92DF92EF92FF920F931F93CF93DF931B
:10598000EC016B015A0139014801E881F981028477
:10599000F385E02D0995E881F9810288F389E02DEE
:1059A00087019301A501B601CE010995A501480D16
:1059B000591D41505109E881F9810288F389E02D90
:1059C0009301B601CE010995E881F9810088F1893A
:1059D000E02D9401A501B601CE010995C60CD71C96
:1059E000B60161507109E881F9810088F189E02DE3
:1059F0009401A501CE010995E881F9810688F7890E
:105A0000E02DCE01DF91CF911F910F91FF90EF908C
:105A1000DF90CF90BF90AF909F908F907F906F90CE
:105A2000099408956F927F928F929F92AF92BF9246
:105A3000CF92DF92EF92FF920F931F93CF93DF935A
:105A40005C01EB016A01490138018701DC01ED913C
:105A5000FC916217730719F5641675062CF0962DE4
:105A6000872D3A01C92ED82E9601261937092F5FA6
:105A70003F4F048CF58DE02DA301BE01C5010995B2
:105A8000DF91CF911F910F91FF90EF90DF90CF901A
:105A9000BF90AF909F908F907F906F900895461524
:105AA000570591F42617370724F0892D4B01C22F93
:105AB000D82F9E01281939092F5F3F4F068CF78D8B
:105AC000E02DA601B401DACF0284F385E02D09951B
:105AD000D501ED91FC910488F589E02D83019401B5
